:020000041000EA
:10000000112000030438000301B4324B2120586052
:100010009868022188439860D860186158612E4B17
:1000200000219960022159610121F02299502B4948
:10003000196001219960352000F044F802229042B5
:1000400014D00621196600F034F8196E01211966E2
:10005000002018661A6600F02CF8196E196E196ED9
:10006000052000F02FF801210842F9D10021996004
:100070001B491960002159601A491B480160012180
:100080009960EB211966A021196600F012F8002191
:1000900099601649144801600121996001BC00284B
:1000A00000D0004712481349086003C880F308884D
:1000B000084703B5996A04200142FBD001200142A0
:1000C000F8D103BD02B518661866FFF7F2FF186E87
:1000D000186E02BD0000024000000018000007007A
:1000E00000035F0021220000F4000018222000A07D
:1000F0000001001008ED00E000000000D44CE6B95B
:0200000410FFEB
:10D0000003480449086003C880F308880847000003
:08D0100018D0FF1008ED00E04C
:10D01800002004200FD1FF10E3D0FF10E5D0FF104F
:10D02800E1D0FF10E1D0FF10E1D0FF10E1D0FF10F8
:10D03800E1D0FF10E1D0FF10E1D0FF10E7D0FF10E2
:10D04800E1D0FF10E1D0FF10E9D0FF10EBD0FF10C6
:10D05800D9D0FF10D9D0FF10D9D0FF10D9D0FF10E8
:10D06800D9D0FF10D9D0FF10D9D0FF10D9D0FF10D8
:10D07800D9D0FF10D9D0FF10D9D0FF10D9D0FF10C8
:10D08800D9D0FF10D9D0FF10D9D0FF10D9D0FF10B8
:10D09800D9D0FF10D9D0FF10D9D0FF10D9D0FF10A8
:10D0A800D9D0FF10D9D0FF10D9D0FF10D9D0FF1098
:10D0B800D9D0FF10D9D0FF10D9D0FF10D9D0FF1088
:10D0C800D9D0FF10D9D0FF10D9D0FF10D9D0FF1078
:10D0D800EFF30580103800BE00BE00BE00BE00BEE3
:10D0E80000BE00BEF2EB8871E0F0FF10FCF0FF100C
:10D0F80050D1FF1090A31AE71E481F49086006C8C0
:10D1080081F3088810471D480068002801D0194895
:10D11800F3E70DA40ECC002902D000F012F8F9E7CD
:10D128001749184A002000E001C19142FCD1164974
:10D138008847164988471649884700BEFDE701C950
:10D1480001C29A42FBD37047FCF0FF10C0000020D8
:10D15800B8070020F4F7FF100000042000000420A6
:10D16800F4F7FF1000100420001004200000000055
:10D17800704700000000000008ED00E0000000D04B
:10D18800B8070020CC0E0020C9E3FF10C1D1FF1062
:10D19800C1E3FF10F8B5C046044B10B5002B03D00F
:10D1A8000349044800E000BF10BDC046000000006D
:10D1B800980C002008F0FF1030B5354B354A196837
:10D1C800C1B0914250D01A60334B344A344D1A6082
:10D1D8008422344B92051A60334B344A29001A6072
:10D1E80080220020520000F03EF9314B2A889A42F2
:10D1F80035D0304B30492B802B00304A6944188891
:10D20800C85202339342FAD101222D4BFC210093DC
:10D218002C4B52426846019300F034F93F9080202D
:10D22800400101F073F800230400595D9A000133AE
:10D23800A150402BF9D1F0228020611CFF3112014E
:10D24800400000F010F9002000F008F980220020CA
:10D258002100520100F0D8F8200001F061F81A4BC3
:10D268001847002041B030BD192000F0D5F9D0236F
:10D2780080221B0692045A621448DA611449154B3D
:10D288001A680968036082F308880847E9E7C04616
:10D298001C800540D3C007B0208005402D3FFC6F9F
:10D2A800004000022480054028800540000004203A
:10D2B8001120000001B4FFFF08C0FFFDF840000284
:10D2C8001120000304380003D124000008ED00E019
:10D2D8000401001000010010044A05491368000207
:10D2E8000B400343136013687047C0460C8001402D
:10D2F800FFFCFFFF70B5040002200D00FFF7ECFFF4
:10D30800C0220423210629435205080E013B10665A
:10D318000902002BF9D170BDF8B5184EC0241500CC
:10D32800B44664051E0016432E4303D10320FFF7BD
:10D33800D3FFF8BD276A666A002A15D0BF190D2FDA
:10D3480012D8071E01D0077801302766013A002E4F
:10D35800E8D0266E002B01D0013BE3E7002901D07D
:10D368000E700131013DDDE7002EF2D16646C0277F
:10D378003668BF023E42D5D0D8E7C0461C8001407F
:10D38800F8B50700022015001E000C00FFF7A4FFE7
:10D39800C0235B051F663200290001232000FFF728
:10D3A800BBFFF8BD002310B51A0019000620FFF7CF
:10D3B800E7FF10BD73B5C0260124B6026B46DD1D1C
:10D3C8002A00230000210520FFF7DAFF2B782342EB
:10D3D80003D0024B1B683342F0D073BD1C80014060
:10D3E80070B505000C00FFF7DDFF29000220FFF7EC
:10D3F80081FF80220423002120005200FFF78CFFC8
:10D40800FFF7D8FF70BD0000F8B505000F00040055
:10D418008618791B0919B44205D2C022054B92021D
:10D428001B68134200D0F8BD20000134FFF7D8FF75
:10D43800FF34EEE71C80014070B505000C00FFF7D3
:10D44800B1FF29002000FFF755FF00220423110037
:10D458001000FFF761FFFFF7ADFF70BD10B5202189
:10D46800FFF7EAFF10BD70B515000C00010003209E
:10D47800FFF740FF2A00042321000020FFF74CFF9C
:10D4880070BD000030B50918534D0CE0047813BA8C
:10D498005C4024060823640000D36C40013BFAD1A9
:10D4A8001202624001308842F0DB101C30BD844615
:10D4B800082A39D370B41BE0013A8B5C8354FBD142
:10D4C800604670478446082A2ED3431A9B07F3D137
:10D4D80070B4091A051C430802D3445C0470013077
:10D4E800830802D3445A0480023009182D1A5219AD
:10D4F800103A03D378C978C0103AFBD2520701D347
:10D5080018C918C0520001D308C908C009D0520070
:10D5180004D30B88038004D00231023001D00B7889
:10D52800037070BC6046704709A392009B1A0133D0
:10D538001847C0468B7983714B7943710B79037116
:10D54800CB78C3708B7883704B7843700B780370FB
:10D55800604670478446C9B20B02194311E0C046C1
:10D568008446082A2AD3430801D301700130C9B27E
:10D578000B021943830801D30180023063461B1A4A
:10D58800D2180BBA19430B1C103A07D330B40C1C31
:10D598000D1CC0463AC0103AFCD230BC520700D32A
:10D5A8000AC0520000D302C006D0520002D3018044
:10D5B80002D0023000D001706046704705A39B1A64
:10D5C8009B1A01331847817141710171C1708170D3
:10D5D8004170017060467047B71DC10410B501481D
:10D5E80000F026F808F0FF10084B8200D31810B599
:10D5F8001C6840236340C0242340054CC000121916
:10D608001360044BC018416010BDC04604C00140FF
:10D6180004D00140004001400123D022834010B5CE
:10D628001206936205219361FFF7DEFF10BD00002B
:10D638000FB407B5084800F093FF049B002B07D0F0
:10D6480005A91800019100F083FE044800F088FF46
:10D65800012000F097FEC04614F0FF1022F0FF10E2
:10D66800EFF3108072B6034A1368002BFCD0BFF3A7
:10D678005F8F70472C0100D0BFF35F8F0022024BF1
:10D688001A6080F3108870472C0100D00722CB085D
:10D69800C35C0120114088401840431E9841C0B225
:10D6A8007047F8B505000C001700FFF7D9FF2100F7
:10D6B80006002800FFF7EAFF002803D02100380001
:10D6C800FFF7B6FF0723E2081C40063BA340A95C0E
:10D6D80030000B43AB54FFF7CFFFF8BD044A107876
:10D6E800431CDBB2172B00D9102313707047C046B8
:10D6F800C80100200021044B044ABFF35F8F02C316
:10D708009342FAD17047C046000100D0800100D092
:10D71800074B10309B688000C150BFF35F8FBFF389
:10D728005F8F0021034B196082F310887047C04651
:10D7380000ED00E0240100D0054B064A1360064ABC
:10D74800136053609360D3601361536193617047B2
:10D758008080808000E400E004E400E01F2318409B
:10D768001E3B8340002905D0C021044A490053507C
:10D7780013607047024AD367FBE7C04600E100E048
:10D7880004E100E0024B10309B688000C0587047ED
:10D7980000ED00E070B504000D00EFF3108672B6DE
:10D7A8000A4A1368002BFCD0BFF35F8F2000FFF7F5
:10D7B800E9FF074B984203D0A84201D0FFF70EFFBC
:10D7C800320029002000FFF7A3FF70BD240100D01C
:10D7D800D9D0FF10024BC918890001607047C046B4
:10D7E8004000003410B50400FFF778FF0100200066
:10D7F800FFF7F0FFFF232371BFF35F8F10BD10B554
:10D808000400FFF76BFF01002000FFF7E3FFFF2391
:10D81800A380BFF35F8F10BD10B50848084B98422E
:10D8280000D310BD040003680834002B03D0FFF7B1
:10D83800E6FF2000F2E7FFF7D5FFFAE76C070020C4
:10D84800740700200A4B1868EFF3108272B601685B
:10D858000029FCD0BFF35F8F1B68BFF35F8F0021E7
:10D86800196082F3108840BF002000217047C0462D
:10D87800C40E0020F0B587B0EFF3058203231A40E9
:10D88800924B03929200D4580123039A9340049335
:10D89800049A8F4B1A608F4B049A5A630822A35E2E
:10D8A8000293002B52DB1823029A65695343894877
:10D8B800ED18AA68EB680092019300F06DFA019BDD
:10D8C8008B4243DC02D1009B83423FD8019B002B53
:10D8D80000DA64E02B69804A6E6993424FD13000C8
:10D8E8003369984700285AD07768366833003B4335
:10D8F80055D0002F4DDA00980199801BB9410022BC
:10D90800AB5EA860E960002B20DB626994461822B0
:10D918005A436244D6688E4218DC02D19268824229
:10D9280014D826002381083618225A436244D7683F
:10D938008F4208DC02D19768874204D8160000227B
:10D94800B35E002BF0DA2B80029B3380A3881BB2D6
:10D95800002B3BDAA379002B09D00023A371200008
:10D9680018250822A35E08305A1C00D06DE0082351
:10D97800E15E002900DB84E040BF07B0F0BD08216C
:10D98800605E6A88000431001043984706000F0063
:10D99800ACE7504800F000FA80197941AFE72B88CE
:10D9A80021692381EFF3108372B60A68002AFCD03C
:10D9B800BFF35F8F62882A80029A62802269BFF370
:10D9C8005F8F0021116083F31088BFE72169EFF3AF
:10D9D800108272B60B68002BFCD0BFF35F8F012159
:10D9E800A3884942A1801BB22169BFF35F8F002041
:10D9F800086082F31088220008320592002B00DAB2
:10DA0800A8E76269059D009218225A4300998A186E
:10DA18009168D76802910821605E00280CDB182104
:10DA28004143009E7118CE68BE4205DC09D18E685C
:10DA3800B446029EB44504D92B800021535E108061
:10DA4800DCE70D000021685EE7E7290059436669B5
:10DA58007218765E5188B44609B200290FDA082692
:10DA6800A15F01267642F7179660D7608B4204D0F3
:10DA780061460180218911802381634674E7100083
:10DA8800FBE718224A4363699B189D68DE686B1C94
:10DA980001D1731C0ED0039B0E4F9B00DB19B96A92
:10DAA8001A69681A521A904203D33A6A04991142C1
:10DAB80000D11D61074800F06FF98E4200DD5BE779
:10DAC80000D0E8E6854200D8E5E655E7B00C00202E
:10DAD8003C700540004005407DD8FF10F8B5C16096
:10DAE800040016001F000D00FFF7F8FDD022267075
:10DAF80012061268144B62700122C0185242BBB25F
:10DB080063819B1863800023800020612281A280AA
:10DB1800BB4212D101270D4BB200D4503C00B44097
:10DB280030002C620A49FFF735FE39003000FFF754
:10DB380015FE084BED182C60F8BD18205843616994
:10DB48005A1E42520133E3E740000034B00C002073
:10DB58007DD8FF103820000010B5094C2369002B30
:10DB680009D10321074800F00DF9102303222000F2
:10DB78000449FFF7B3FF0A210348FFF72BFE10BD46
:10DB8800CC01002000400540C40E002010B5074C11
:10DB98000300626A0020914206D8A46A01309C42C0
:10DBA80002D2881A431E984110BDC0460040054065
:10DBB800F0B501000469EFF3108672B620680028FA
:10DBC800FCD0BFF35F8F02200D5E182068434C69BC
:10DBD8002418002D01DB208848800869BFF35F8F77
:10DBE8000027076086F31088BD422CDBE36063885A
:10DBF8000598013320615B0406985B0CA2606061A4
:10DC08001A1CBB4200D1012293B228046280184337
:10DC18000E69EFF3108372B63268002AFCD0BFF3A6
:10DC28005F8F8A8822808D800A69BFF35F8F002406
:10DC3800146083F3108801220B789A40CB6803495B
:10DC48005B181A60F0BD01204042FBE73C20000051
:10DC5800F7B51F000AAB1C7805001600002C09D088
:10DC6800099B32000193089B280000933B00FFF7B3
:10DC78009FFFFEBD00F098F832003B00121A8B415E
:10DC8800002BEDDA2000F4E770B5030040890A1490
:10DC9800904201DC002070BD182050435A691C696D
:10DCA8001218EFF3108572B620680028FCD0BFF375
:10DCB8005F8F568889B20020B4B28E4205D1802188
:10DCC80009020C435480013098711A69BFF35F8FC1
:10DCD8000021116085F310888842DBD00122197871
:10DCE800DB688A4001495B181A60D4E73C200000D1
:10DCF800F0B504000D0087B0EFF305830493002B03
:10DD080002D0200029002AE01C4FFB683E7818004A
:10DD1800059300F041F802000B0004360599B6009F
:10DD2800715820008E1A2900801A99410B00049915
:10DD38000200994204DC01D1964201D820BFE0E7F5
:10DD48000023029301930E4B2200009338002B000E
:10DD5800FFF77EFF290006002000002E03DCFFF7F6
:10DD680015FF07B0F0BDFFF711FF002800D120BF55
:10DD780031003800FFF788FFC3E7C046CC01002018
:10DD88004DD8FF1010B5024A0248FFF78AFC10BDB3
:10DD980024F0FF10C80E00200300416A0A00986AA8
:10DDA800596A8A42FAD1704710B50248FFF7F4FF62
:10DDB80010BDC04600400540F7B50C24444301930C
:10DDC800254B0092E4186368089A05000E009342F8
:10DDD80000D26260C0232F1F9B01FFB2E318012FFE
:10DDE80029D8012E27D103221A60A3683342FCD018
:10DDF800009B22685B015340E022134080225201BD
:10DE0800A2181360012F09D80321236873400B401F
:10DE180013600123B340A2681342FCD08023802200
:10DE28009B01E31812011A60089B019A63600B4B6F
:10DE3800AD00EA50F7BD802212011A60074BAA0014
:10DE4800D1580029D4D0586900F09EF9431C03200A
:10DE580058430338FDD2CBE700800040600C002017
:10DE6800F7B505000E0018000899170000F08CF9A6
:10DE7800089A0300140231003A0028000094FFF7C2
:10DE88009BFFF7BD13B5802464000094FFF794FF4F
:10DE980013BD0000014B8000C0587047600C002083
:10DEA800F8B504001F4817001E000D0000F06CF9BB
:10DEB8000100380000F068F9069A3304120313438E
:10DEC8002268002A0FDA3F2122680A40AA420AD1B2
:10DED800A2681205120D824205D1EE21E268C9023C
:10DEE8000A409A421CD0104A104EA1184A42514189
:10DEF80001220C318A400E490A600E490A60170057
:10DF080031688F43391EFAD10B4A2131A218256096
:10DF1800A060116021680029FCDAE360082313601F
:10DF2800F8BDC046001BB7000040FDBF08C0004058
:10DF380000E0004000F00040043000008023024A66
:10DF48009B000B43D362704700800540142310B533
:10DF58000100188804331B88984710BD162310B594
:10DF68000100188802331B88984710BDF8B50E00C9
:10DF7800040000270125B74201D12800F8BD206818
:10DF8800FFF7E4FF01C4431E9841404205400137B2
:10DF9800F1E70000AA22064B12011A608D225200F6
:10DFA800DA600449044A11605A68002AFCDA7047AA
:10DFB8000040024000B0FA000060024070470000D4
:10DFC80010B5044C044B9C4200D310BD08CC9847B4
:10DFD800F8E7C04674070020B0070020054B064A42
:10DFE80006491A60064B074A136018000A689043EE
:10DFF800FBD1704700E00040BFCDFBFE08C00040E9
:10E00800FE7F3C0000F00040044BDB6C002B03D18A
:10E018008022034BD2021A607047C046000011509C
:10E028004C201150044A054B1A60054A1368DB015D
:10E038008033FBD17047C046FFFFFF0100F000406E
:10E0480008C000404022034B9A675A671A67DA668D
:10E058007047C04600F0014010B5FFF74BFB10BDFC
:10E0680070B50B490B4C0C4D641AA4102200302CCF
:10E0780000D930222800920000F05EF9074B2F2CBF
:10E0880002D9074B9D6070BDA200AB500134F6E782
:10E0980018D0FF10D8D0FF1000000020D9D0FF10F2
:10E0A80000ED00E0002373B5284DAB67FFF772FF62
:10E0B8000122274B1A606B6C012BFCD10322254BE4
:10E0C8001A60AC6B012CFCD10226052521000096B4
:10E0D8000623214A2148FFF7E3FE2B002100009583
:10E0E8001F4A2048FFF7DCFE3100002204201E4BA7
:10E0F800FFF7C8FE2800210000221C4BFFF7C2FED4
:10E108000022072011001A4BFFF7BCFE002208204E
:10E118001100174BFFF7B6FE80230022DB00110029
:10E1280000930920124BFFF79BFE00220F4B1100B2
:10E138000620FFF7A7FE0420FFF7ACFE0D4900F00C
:10E1480023F801000020FFF7F9FE73BD00800040AE
:10E158003CB0004030B00040002F685900800240B9
:10E16800008C864700C00240001BB7004059730767
:10E17800006CDC0240420F0001480421014B1847A3
:10E18800F001002075DFFF10114A936F9B0813D22E
:10E1980010665166002905D0FFE7FFE7FFE7516FDA
:10E1A800106F704704B5002801D00020C04300F06C
:10E1B80017FF002104BDC046F0B5146E556E576FA9
:10E1C800166FFFF7E5FF1466556657671667F0BDCB
:10E1D800000000D0132370B51C78114D012C0ED10E
:10E1E800002310499A000133A950202BFAD10D4B76
:10E1F800AB640D48FFF7AAFE0C4B186070BD012CEC
:10E20800F5DD0B48FFF7AAFE06000A48FFF7A6FE51
:10E2180080223100280000F08FF8022CE9D1E6E7CF
:10E22800C00C002041E2FF104C330000C00D00205C
:10E23800534400005346000007B5604601880A0AA7
:10E248000230DF2AFAD1C9B2820804D30288408892
:10E258000004104300E00068014A5050039007BDD5
:10E26800C00C0020132310B510481C78FFF776FE69
:10E278000100012C13D10E4C5422200000F05CF850
:10E2880015230C4A990001336250202BFAD12262DF
:10E29800E2610948FFF75AFE084B186010BD012CCF
:10E2A800F7DD8022024800F047F8F2E75346000005
:10E2B800C40D0020C9E2FF104C330000C00D00203F
:10E2C80007B5604601880A0A0230DF2AFAD1C9B2C6
:10E2D800820804D3028840880004104300E00068E4
:10E2E800014A5050039007BDC40D002010B5002806
:10E2F80003D0044B4018984202D90348FFF798F915
:10E3080010BDC0460000042046F0FF1070B505009F
:10E3180000F03EF904002900FFF7E8FF200070BD77
:10E3280010B500F03FF910BD01480421014B184712
:10E338000002002075DFFF10014B5B6818470000E2
:10E348000002002010B5002801D000F0FDF810BD33
:10E3580030B50A4B85B01C68002C0AD00122084D44
:10E36800030000912800524203A9A047012005B0EC
:10E3780030BD00F0F5F82000F9E7C046940C002005
:10E388004DE3FF1000BEFDE7084A030011680029AD
:10E3980001D10749116010680649C3188B4201D89A
:10E3A8001360704701204042FBE7C046900C0020F4
:10E3B800CC0E00200000042010B5FFF7E3FF00009A
:10E3C80010B5FFF7FDFD044C044B9C4200D310BD73
:10E3D80008CC9847F8E7C046B0070020B8070020E7
:10E3E800030010B5080011001B68984710BD000015
:10E3F800F8B50C000021437D0500160008008B428B
:10E408001ED1110020002B689847F8BD002929D09B
:10E41800631E5B5C0D3B5A425341DBB2625C4F1C8E
:10E428000A2A0CD1002B0AD1814203DD091A2B6874
:10E43800201898470C4802212B6898473800390063
:10E448008E42E3DC864203DD311A2B682018984798
:10E45800002EDADDA419013C23780D3B5A425341C2
:10E468002B75D2E72B7DD9E7DDF0FF1010B5FFF74C
:10E478009BFC0023064A12184B41802109068B4257
:10E4880002D30122034B5242034800F0B1FD10BDF4
:10E4980040420F00FFFFFF7F6C07002010B50248C5
:10E4A80000F096FD10BDC0466C070020F0B585B0A1
:10E4B80006000C001D000092FFF7D8FF0190631CB6
:10E4C80003D1300000F0AEFB0400144F002D00D043
:10E4D800134F144B1D68002D07D1019B002B01D051
:10E4E800FFF7DCFF200005B0F0BD2B68002B13D030
:10E4F8000D4B1B68002B01D0AB420DD1220031001F
:10E508002800B847009B002B06D002ABD91D0A2370
:10E51800012228000B70B8472D69DCE7E9E3FF10FA
:10E52800F9E3FF10880C00208C0C0020054B10B577
:10E538001C68002C00D110BD6368002B00D09847E0
:10E548002469F6E7880C002013B56B460400D81D33
:10E558000123002219000470FFF7A8FF200016BD50
:10E5680070B5050000F05EFB0123040001001A00ED
:10E578002800FFF79BFFFFF7D9FF200070BD0000C0
:10E5880010B5010000230022002000F079FB10BD27
:10E5980010B5034B0100186800F00EF810BDC04616
:10E5A8002006002010B5034B0100186800F022FC7B
:10E5B80010BDC04620060020F0B54E464546DE4652
:10E5C8005746E0B50D000B35060085B0162D27D847
:10E5D800102900D9DAE000F0C7FA10251823022123
:10E5E800C74FFB181A005C68083A944200D146E10C
:10E5F80003226368A1689343E268CA6091600121BD
:10E60800E3185A6830000A435A6000F0B5FA20004F
:10E61800083005B0F0BCBB46B246A946A046F0BDDE
:10E6280007239D4300D5B1E0A94200D9AEE000F030
:10E638009BFAFC235B009D4200D294E1690A00D159
:10E64800A8E0042900D94FE138239846A90988444D
:10E658003931CB00082252429446A94FFB189C44FA
:10E668006346DC68A44514D0032399460B00614631
:10E678009C4607E0E068002A00DBFAE0814200D10E
:10E68800FBE004004A46636893435A1B0F2AF1DDF6
:10E6980041463A003C690832944200D1D8E0032050
:10E6A80063688343581B0F2800DD60E13A617A6193
:10E6B8000028A4DA7A68904680229200934200D318
:10E6C800E3E0DA08580901238340404618438046AE
:10E6D800D300DB199A687860E360A2609C60D4601C
:10E6E80001208B10984040455CD8434603420AD12C
:10E6F80003239943434640000431034203D14000B9
:10E7080004310342FBD00323B3469C460E00B846AF
:10E718000190F00040440100B246CB680BE064462B
:10E728005A681F00A243DB68541B0F2C00DDEDE084
:10E73800002C00DB07E19942F1D101239946CA4434
:10E74800534608319B07E8D1032205E003680838DF
:10E75800013E834200D001E23242F7D14346019A9A
:10E768005B68934342465360019A520001929A4271
:10E7780016D8002A06D113E004229146019ACA4409
:10E78800520001921342F7D05646C2E70C230020EC
:10E7980033603EE780233F22402190469B0059E7A3
:10E7A8005E4647460322BC68636893439846AB427B
:10E7B80002D35A1B0F2A4EDC230043440293514BC9
:10E7C80008209A461B6810335B19019300F01CFA65
:10E7D8004D4903900B688B46013306D08446019B54
:10E7E8004242013B6344134001933000019900F019
:10E7F800CBF903008146013300D1D6E0029B834266
:10E8080000D9D0E053465A68019B51469C46624461
:10E818004A60029803990139484500D0E3E0484628
:10E82800084200D0DFE0B9684344894601210B4320
:10E8380049464B605146C96A914201D25146CA6263
:10E848005146096B914201D251460A634C46AEE0EB
:10E858007B68984644E7012329001A431943651940
:10E8680061603000BD606A6000F086F92000083001
:10E87800CFE6A268D0608260C1E6614609E7DC683D
:10E888000231A34200D104E7B2E65A0A042A00D8AA
:10E8980082E0142A00D907E110005B3082465C321E
:10E8A800D200082040428446BA18944462469268CE
:10E8B8000B308146944500D1DEE00800A24661464F
:10E8C800844602E09268914204D04C465068A043C6
:10E8D8009842F7D8D368614654469C466346A2607E
:10E8E800E3609C60D460FBE614296DD9542900D9F3
:10E8F800E3E06E239846290B88446F31CB00A9E6E4
:10E90800180200203809002010020020BA46012011
:10E91800514684464919054350464560856847462F
:10E928006046EB605E469D605346396179612043DD
:10E9380008374860CF6030008F609C5000F01CF9A9
:10E948005046083065E6BA4601205E465244516892
:10E9580001435160BA683000D3609A6000F00CF946
:10E968003800083055E62B00E908083338E6611905
:10E97800884601218C460D434146656039617961BD
:10E98800CA608A60624602434A60E050300000F084
:10E99800F3F8200008303CE69A0910003932383084
:10E9A8008246D2007DE7BC4214D0BC68636803226B
:10E9B80093435A1BAB4202D30F2A00DD4BE73000CA
:10E9C80000F0DAF8002024E65B23984688445C319E
:10E9D800CB003FE653465A68019B9C465346624427
:10E9E8005A60039B591E5B461B68013370D04B4627
:10E9F80002981B1A9B185246536007234A464846FA
:10EA08001A400292184240D00398013384469B1A58
:10EA1800019A99444A44019263440A409B1A194056
:10EA280030008B4600F0B0F8431C77D04B46C01A34
:10EA380003005B44019353465A6801205A445A60C4
:10EA48004B464946BB60019B03434B60BC4200D127
:10EA5800F0E643460F2B3FD907210C3B8B436168F7
:10EA68000140052019436160E118486088600F2B58
:10EA780049D84B465B68DDE653469810012383402E
:10EA8800404618438046786028E7019B039A4B4428
:10EA98000B40D31A194030008B4600F075F8431C20
:10EAA800C4D100239B46C6E7542A17D81A0B100076
:10EAB8006F326E308246D200F3E6AA235B00994299
:10EAC80017D8DD3B9846E90B88447831CB00C1E57F
:10EAD8005B464A461A6090E7486070E7AA20400003
:10EAE800824226D8DA0B1000783277308246D2007C
:10EAF800D7E61C4B994226D87C239846A90C884413
:10EB08007D31CB00A6E521003000083100F072F914
:10EB180053465A68BB6899465B688BE6019A029B24
:10EB280094464A46083B63449B1A019300239B463C
:10EB380081E70C4882420CD89A0C10007D327C3058
:10EB48008246D200ADE6FE237E227F2190469B00BE
:10EB580080E5FE227E2092008246A2E643465B685C
:10EB680002E6C0465405000010B5024800F042F81D
:10EB780010BDC0467C09002010B5024800F042F8DC
:10EB880010BDC0467C090020002370B5064C050066
:10EB980008002360FFF7F8FB431C00D070BD236812
:10EBA800002BFBD02B60F9E75C0C0020014B1868A8
:10EBB8007047C0462006002070B5074C074D641BFF
:10EBC800A41005D0013CA300EB589847002CF9D1BC
:10EBD80000F0FAF970BDC046B8070020B807002059
:10EBE8007047C0467047C0467047C0467047C04629
:10EBF8007047C0467047C0460120704701207047E3
:10EC08007047C0467047C046802310B55B0108288E
:10EC180001D1180010BDFFF7C9FF16230360173B89
:10EC2800F7E7C04610B583070AD00300032102E0C6
:10EC380001330B4205D01A78002AF9D1181A10BDF1
:10EC4800030019680C4A0D4C8A188A4322420FD1D6
:10EC58005968094A04338A188A43224208D15968F4
:10EC6800054A04338A188A432242F1D000E001336E
:10EC78001A78002AFBD1E1E7FFFEFEFE8080808043
:10EC8800F0B5D6464F4646469846244BC0B50600D2
:10EC980018689A460F009146FFF7ACFF204B1D6895
:10ECA800002D32D053466C6818681F2C30DC002EBB
:10ECB8000CD1631C0234A4006B606751FFF7A2FFFC
:10ECC8000020E0BCBA46B146A846F0BD49468822B5
:10ECD800A300EB189950C42149008C46AC44614606
:10ECE800873AA2400968914611436246116084211F
:10ECF800424649005A50022EDBD129004A468D313E
:10ED0800FF310B6813430B60D3E7064D1D60C9E75D
:10ED1800FFF778FF01204042D3E7C046680700208C
:10ED28001C0B00208C090020034B10B5002B02D0CF
:10ED38000248FFF725FC10BD00000000C1EBFF10E2
:10ED4800F0B5C646060000B508200D00FFF75CFFC9
:10ED580004003000FFF708FF234B210098469B680A
:10ED68005F6803239F4338001138401B0019FFF7E1
:10ED78000BFA451E6543AC4208DC00213000FFF762
:10ED880003FF43469B68DB19984206D03000FFF723
:10ED9800F3FE002080BCB846F0BD30006942FFF7A2
:10EDA800F3FE01300ED0012243467F1B9B681743B8
:10EDB8000E4A5F60136830005B1B1360FFF7DCFED0
:10EDC8000120E7E700213000FFF7DEFE43469A689E
:10EDD800831A0F2BDADD064C04492468001B0860EF
:10EDE80001210B435360D1E7180200203C090020A1
:10EDF80010020020F8B5CE46474605000C0080B545
:10EE0800002957D0FFF7B0FE012321009C4608399E
:10EE180048686246030003249343CF187A68654E16
:10EE2800A243B468BC4200D170E0BC18A146644655
:10EE38007A60044221D10868091A1B18886880463C
:10EE4800484640682040340008348146A04551D0E7
:10EE58004046CC68C460A0604846002811D19B1881
:10EE68005548BA68824200D17FE0F868D060826075
:10EE780001221A434A60CB5007E0484640682042C6
:10EE8800EDD062461A434A603B608022920093426A
:10EE980014D2DA0858090123834070680343736069
:10EEA800D3009B199A68CB608A609960D16028006A
:10EEB800FFF762FEC0BCB946B046F8BD5C0A042C38
:10EEC8003DD89C09200039343830E40034192268D0
:10EED800083C0327944203D140E09268944203D04F
:10EEE8005068B8439842F8D8D468CC608A60A1606A
:10EEF800D160DCE7002858D1B868D218FB68C36035
:10EF08009860634613434B608A50D0E79A1863466B
:10EF1800034206D10B68C91A8868D218CB68C36047
:10EF28009860012313434B60244BB1601B689342E4
:10EF3800BDD8234B28001968FFF702FFB7E7142C48
:10EF480007D9542C1AD81C0B20006F346E30E400FB
:10EF5800BCE720005C345B30E400B7E70123801095
:10EF68008340706803437360BFE7D1609160CA60F3
:10EF78008A6001221A434A60CB5098E7AA225200BD
:10EF8800944205D8DC0B200078347730E4009DE704
:10EF98000C4A944205D89C0C20007D347C30E40057
:10EFA80094E7FE247E20A40090E762461A434A6054
:10EFB8003B607CE718020020200200201402002099
:10EFC8003809002054050000F8B5C04600000000CC
:10EFD80001B40248844601BC604700BF8701002095
:10EFE80001B40248844601BC604700BFB10100205B
:10EFF80001B40248844601BC604700BF59010020A3
:10F008004861726420617373657274000A2A2A2A3F
:10F018002050414E4943202A2A2A0A004861726436
:10F028007761726520616C61726D20256420616C66
:10F03800726561647920636C61696D6564004F7500
:10F0480074206F66206D656D6F72790052656C650E
:10F0580061736500626F6F74325F77323571303873
:10F068003000322E322E30007069636F00444157F1
:10F07800476B69740044656320313520323032357E
:10F088000006005250D3F0754254F0FF10060052AB
:10F0980050E182887F5CF0FF1006005250ABB360ED
:10F0A800536AF0FF1006005250BBFF3CB670F0FFE9
:10F0B8001006005250861C030275F0FF100600521D
:10F0C800505422A29D7DF0FF1005005250DE65F4D9
:08F0D80068F4F7FF100D0A00B7
:10F0E00089F0FF1095F0FF10A1F0FF10ADF0FF10B8
:0CF0F000B9F0FF10C5F0FF10D1F0FF10C8
:10F0FC00030010B50068EFF3108472B60268002AA2
:10F10C00FCD0BFF35F8F04229A56002A0CDAD0226F
:10F11C000120120612681A711B68BFF35F8F002260
:10F12C001A6084F3108810BD002901D10020F3E788
:10F13C000A60FBE7F7B50193D023050016001B0608
:10F14C001F682968EFF3108372B60A68002AFCD096
:10F15C00BFF35F8F297900242A687F2907D92F7183
:10F16C00BFF35F8F146083F310880120FEBDBFF3E3
:10F17C005F8F146083F310883000019900F034F82D
:10F18C000028DED02000F1E773B501A904001600B9
:10F19C001D00FFF7ADFF00280CD1D0221206019BF9
:10F1AC0012785BB252B2934204D032002B00200092
:10F1BC00FFF7C0FF76BD0168EFF3108372B60A68E3
:10F1CC00002AFCD0BFF35F8FFF2202710268BFF3ED
:10F1DC005F8F0021116083F3108840BF70470000DF
:10F1EC007047C0460000000001B40248844601BCD0
:10F1FC00604700BFF9DCFF101000000000000000A9
:10F20C0000000000000000000000000000000000F2
:10F21C00B807002000000000000000000000000003
:10F22C00503300004C3300005433000052330000C4
:10F23C004D5300004D430000533400004334000094
:10F24C00FFFFFFFF000002000000000000000000B4
:10F25C0018020020180200202002002020020020AA
:10F26C00280200202802002030020020300200205A
:10F27C00380200203802002040020020400200200A
:10F28C0048020020480200205002002050020020BA
:10F29C00580200205802002060020020600200206A
:10F2AC00680200206802002070020020700200201A
:10F2BC0078020020780200208002002080020020CA
:10F2CC00880200208802002090020020900200207A
:10F2DC009802002098020020A0020020A00200202A
:10F2EC00A8020020A8020020B0020020B0020020DA
:10F2FC00B8020020B8020020C0020020C00200208A
:10F30C00C8020020C8020020D0020020D002002039
:10F31C00D8020020D8020020E0020020E0020020E9
:10F32C00E8020020E8020020F0020020F002002099
:10F33C00F8020020F8020020000300200003002047
:10F34C0008030020080300201003002010030020F5
:10F35C0018030020180300202003002020030020A5
:10F36C002803002028030020300300203003002055
:10F37C003803002038030020400300204003002005
:10F38C0048030020480300205003002050030020B5
:10F39C005803002058030020600300206003002065
:10F3AC006803002068030020700300207003002015
:10F3BC0078030020780300208003002080030020C5
:10F3CC008803002088030020900300209003002075
:10F3DC009803002098030020A0030020A003002025
:10F3EC00A8030020A8030020B0030020B0030020D5
:10F3FC00B8030020B8030020C0030020C003002085
:10F40C00C8030020C8030020D0030020D003002034
:10F41C00D8030020D8030020E0030020E0030020E4
:10F42C00E8030020E8030020F0030020F003002094
:10F43C00F8030020F8030020000400200004002042
:10F44C0008040020080400201004002010040020F0
:10F45C0018040020180400202004002020040020A0
:10F46C002804002028040020300400203004002050
:10F47C003804002038040020400400204004002000
:10F48C0048040020480400205004002050040020B0
:10F49C005804002058040020600400206004002060
:10F4AC006804002068040020700400207004002010
:10F4BC0078040020780400208004002080040020C0
:10F4CC008804002088040020900400209004002070
:10F4DC009804002098040020A0040020A004002020
:10F4EC00A8040020A8040020B0040020B0040020D0
:10F4FC00B8040020B8040020C0040020C004002080
:10F50C00C8040020C8040020D0040020D00400202F
:10F51C00D8040020D8040020E0040020E0040020DF
:10F52C00E8040020E8040020F0040020F00400208F
:10F53C00F8040020F804002000050020000500203D
:10F54C0008050020080500201005002010050020EB
:10F55C00180500201805002020050020200500209B
:10F56C00280500202805002030050020300500204B
:10F57C0038050020380500204005002040050020FB
:10F58C0048050020480500205005002050050020AB
:10F59C00580500205805002060050020600500205B
:10F5AC00680500206805002070050020700500200B
:10F5BC0078050020780500208005002080050020BB
:10F5CC00880500208805002090050020900500206B
:10F5DC009805002098050020A0050020A00500201B
:10F5EC00A8050020A8050020B0050020B0050020CB
:10F5FC00B8050020B8050020C0050020C00500207B
:10F60C00C8050020C8050020D0050020D00500202A
:10F61C00D8050020D8050020E0050020E0050020DA
:10F62C00E8050020E8050020F0050020F00500208A
:10F63C00F8050020F8050020000600200006002038
:10F64C0008060020080600201006002010060020E6
:10F65C00280600200000000000000000240B002001
:10F66C008C0B0020F40B00200000000000000000B8
:10F67C00000000000000000000000000000000007E
:10F68C00000000000000000000000000000000006E
:10F69C00000000000000000000000000000000005E
:10F6AC00000000000000000000000000000000004E
:10F6BC00000000000000000000000000000000003E
:10F6CC00000000000000000000000000000000002E
:10F6DC00000000000000000000000000000000001E
:10F6EC00000000000000000000000000000000000E
:10F6FC0001000000000000000E33CDAB34126DE6AB
:10F70C00ECDE05000B000000000000000000000013
:10F71C0000000000000000000000000000000000DD
:10F72C0000000000000000000000000000000000CD
:10F73C0000000000000000000000000000000000BD
:10F74C0000000000000000000000000000000000AD
:10F75C00000000000000000000000000000000009D
:10F76C00000000000000000000000000000000008D
:10F77C00000000000000000000000000000000007D
:10F78C00000000000000000000000000000000006D
:10F79C0000000000000000008409002000000000B0
:10F7AC0000000000E5DFFF1011E0FF1081E1FF1009
:10F7BC0031E3FF10DDE1FF106DE2FF10ADE0FF1053
:10F7CC002DE0FF104DE0FF1061E0FF1021D8FF107D
:10F7DC0069E0FF1061DBFF10C5DFFF1041D7FF10A0
:08F7EC0031EDFF10A1D1FF1067
:0400000510FFD10116
:00000001FF
