:020000041000EA
:1000000000B5324B212058609868022188439860DF
:10001000D860186158612E4B002199600221596106
:100020000121F02299502B49196001219960352056
:1000300000F044F80222904214D00621196600F024
:1000400034F8196E01211966002018661A6600F04E
:100050002CF8196E196E196E052000F02FF8012189
:100060000842F9D1002199601B49196000215960AB
:100070001A491B48016001219960EB211966A021F2
:10008000196600F012F800219960164914480160C1
:100090000121996001BC002800D000471248134993
:1000A000086003C880F30888084703B5996A0420EC
:1000B0000142FBD001200142F8D103BD02B5186610
:1000C0001866FFF7F2FF186E186E02BD00000240BE
:1000D000000000180000070000035F00212200005C
:1000E000F4000018222000A00000FF1008ED00E03E
:1000F000000000000000000000000000A4043EF525
:0200000410FFEB
:1000000000200420F700FF10CB00FF10CD00FF10F0
:10001000C900FF10C900FF10C900FF10C900FF1080
:10002000C900FF10C900FF10C900FF10CF00FF106A
:10003000C900FF10C900FF10D100FF10D300FF104E
:10004000C100FF10C100FF10C100FF10C100FF1070
:10005000C100FF10C100FF10C100FF10C100FF1060
:10006000C100FF10C100FF10C100FF10C100FF1050
:10007000C100FF10C100FF10C100FF10C100FF1040
:10008000C100FF10C100FF10C100FF10C100FF1030
:10009000C100FF10C100FF10C100FF10C100FF1020
:1000A000C100FF10C100FF10C100FF10C100FF1010
:1000B000C100FF10C100FF10C100FF10C100FF1000
:1000C000EFF30580103800BE00BE00BE00BE00BECB
:1000D00000BE00BEF2EB88714C56FF106C56FF104C
:1000E0003801FF1090A31AE71E481F49086006C890
:1000F00081F3088810471D480068002801D019487E
:10010000F3E70DA40ECC002902D000F012F8F9E7B5
:100110001749184A002000E001C19142FCD116495C
:100120008847164988471649884700BEFDE701C938
:1001300001C29A42FBD370476C56FF10C0000020EA
:1001400044170020F06CFF10000004200000042081
:10015000F06CFF10001004200010042000000000CC
:10016000704700000000000008ED00E0000000D033
:100170004817002070290020551CFF10A901FF100E
:100180004D1CFF10F8B5C046044B10B5002B03D032
:100190000349044800E000BF10BDC0460000000055
:1001A0000C2900203052FF10F8B5D025802601F030
:1001B00051FE192000F08EF92D06B6045F4B6E62D9
:1001C0006E6119685E4A914220D1D0248025C820F2
:1001D0002406AD04A561800000F0FCFFC820656125
:1001E00000F0F8FFC820A561800000F0F3FFC820F0
:1001F000656100F0EFFF534B534854491A68096892
:10020000036082F3088808470020F8BD1A60504B4D
:10021000504A1A60504B514A1A60514B514A1A6069
:1002200004231A00013AFDD11A00A968013AFDD150
:100230000122A8684908D040114010400918180050
:100240000138FDD1A868D04010404018190001398C
:10025000FDD1A968D1401140091818000138FDD11D
:10026000A868D0401040401819000139FDD1A96894
:10027000D1401140091818000138FDD1A868D040BC
:100280001040401819000139FDD1A968D140114032
:100290000918013BFDD1AB68D34013405B18042B18
:1002A00000D992E78021304CFF322000490501F04F
:1002B0008BFC2E4B2E4F1B68BB4205D1EB222D4BE6
:1002C00083F30888104780E76420AE6100F082FF66
:1002D00064206E6100F07EFFE8230122E750524265
:1002E000FC21200000F04AF8FC23E050802040016F
:1002F00001F046FC0500020023001F4C1978013371
:1003000002C2A342FAD1F022691CFF3112010D484A
:1003100001F05AFCEFF3108472B6802100204901ED
:1003200004F04EFF802229000020520104F030FF2B
:1003300084F31088280001F035FCBFE71C800540DD
:10034000D3C007B00001001008ED00E00401001068
:10035000208005400E1AF84F24800540001004202C
:10036000288005402325000000400020E8400020B0
:100370000000FF10001F04204040002030B5091885
:10038000534D0CE0047813BA5C4024060823640043
:1003900000D36C40013BFAD1120262400130884226
:1003A000F0DB101C30BD8446082A39D370B41BE042
:1003B000013A8B5C8354FBD1604670478446082A1F
:1003C0002ED3431A9B07F3D170B4091A051C4308B6
:1003D00002D3445C04700130830802D3445A048081
:1003E000023009182D1A5219103A03D378C978C06F
:1003F000103AFBD2520701D318C918C0520001D3DA
:1004000008C908C009D0520004D30B88038004D067
:100410000231023001D00B78037070BC6046704727
:1004200009A392009B1A01331847C0468B79837148
:100430004B7943710B790371CB78C3708B788370E0
:100440004B7843700B780370604670478446C9B29E
:100450000B02194311E0C0468446082A2AD34308F8
:1004600001D301700130C9B20B021943830801D3D3
:100470000180023063461B1AD2180BBA19430B1CB9
:10048000103A07D330B40C1C0D1CC0463AC0103AC9
:10049000FCD230BC520700D30AC0520000D302C0C5
:1004A00006D0520002D3018002D0023000D0017089
:1004B0006046704705A39B1A9B1A01331847817148
:1004C00041710171C1708170417001706046704767
:1004D000B71DC1040123D0228340120693629361A9
:1004E000094A83009A1811684022514080320A401C
:1004F0000649C0008C4663441A60054B9C460523A0
:10050000604443607047C04604C0014004D00140CD
:10051000004001408023DB051868000F7047C0468B
:100520000FB400B5084883B001F0E4FC049B002B35
:1005300007D005A91800019101F054FB034801F010
:10054000D9FC012001F066FB3052FF104052FF1031
:1005500070B5EFF3108C72B60D4D2B68002BFCD0EC
:10056000BFF35F8F0724CB08C618C05C01230C4083
:10057000A3401C000440034207D118433070BFF36E
:100580005F8F2C608CF3108870BD1000FFF7C8FFE0
:100590002C0100D0F8B54746CE46884680B5EFF32B
:1005A000108C72B6214D2C68002CFCD0BFF35F8FED
:1005B0009A422CD8D4080727055D06190124174054
:1005C000BC402C421FD007210127894609E0D408EE
:1005D000055D06194C4639001440A1400C00294223
:1005E00011D001329342F2D201204042BFF35F8F1B
:1005F00000220E4B1A608CF3108800280FDBC0BC61
:10060000B946B046F8BD254310003570EEE7BFF39C
:100610005F8F00232B608CF31088012040424346FB
:10062000002BECD00898FFF77BFFC0462C0100D0D0
:10063000044A1078431CDBB2172B00D91023137027
:100640007047C046D010002010B5064B064C82B053
:100650000100009318221F232000FFF79BFF02B028
:1006600010BDC0464452FF10982400200021044BC6
:10067000044ABFF35F8F02C39342FAD17047C0466A
:10068000000100D0800100D0054B064A1360064AE5
:10069000136053609360D36013615361936170473B
:1006A0008080808000E400E004E400E01F23184024
:1006B0001E3B8340002905D0C021044A4900535005
:1006C00013607047802201498B50FAE700E100E097
:1006D00001228240034B1B6813405A1E9341D8B23B
:1006E0007047C04600E100E001238340014A1360E7
:1006F0007047C04600E200E0064B10309B68800067
:10070000C358054A00209B1A2F229A424041C0B28A
:100710007047C04600ED00E0D410002070B50D0019
:10072000EFF3108672B60F4A1368002BFCD0BFF3AC
:100730005F8F0D4B10309B6884001B590B4A93420E
:1007400003D09D4201D001F001F8074B9B681D5179
:10075000BFF35F8FBFF35F8F0022024B1A6086F3F7
:10076000108870BD240100D000ED00E0C100FF1032
:10077000F0B557464E46DE464546E0B585B0060024
:1007800000911700EFF3108B72B66A4A1368002BC2
:10079000FCD0BFF35F8F0025674B5D579A46002D55
:1007A00000DAA9E06B00654C01935B199B00984649
:1007B000A146C1444B4652469B7910361370604B9C
:1007C000B6009B6899590B1B2F2B33D95D4B99426F
:1007D00000D0ACE0019B42469C465B4B6544AD00BB
:1007E00063535A4B0232A218043B9B1A1B05584A0A
:1007F0005B0D651913436B80564B0121AB80FF23C2
:10080000AB71009BEF71AB604B460B4319004C4B37
:100810009B689951BFF35F8FBFF35F8F0022454BF9
:100820001A608BF3108805B0F0BCBB46B246A946EF
:10083000A046F0BD01200A008243D3798C46BB421A
:1008400031D84546130044491B1B5B415943090DF0
:100850003D4B63533D4B02356519043B5B1B1B0548
:100860003B4D5B0D2B43AA464D466B800425AC46A1
:100870005546E044131F44441B1B1B055B0D1D43E1
:100880004B46997100999D8099604946DF71334BC1
:1008900001431360BBE75800C01880002018C179DD
:1008A000B9422FD902000623D356002BF3DA029364
:1008B0002B4B61460393131D9A4604235B429C46CF
:1008C000E14450464B461B1A1B055B0D9C46204BD2
:1008D000957198466346404603439380019B5A199D
:1008E0009200039BA418A380029B1C4AA371009B47
:1008F0002260E771A3608AE700F028FF00255346D5
:100900005D574FE7908802934005131D9A460315E3
:1009100061469C464046D444634604302018181A69
:10092000E0230005400D1B0218430390C5E700F0CB
:100930000DFF4FE7240100D069290020D4100020CA
:1009400000ED00E0C100FF1000A1FFFF0411002036
:1009500000E0FFFF01BDFFFFAAAA00000148804799
:1009600001BD000070B501240443EFF30581EFF3EE
:10097000108C72B6214A1368002BFCD0BFF35F8F36
:100980001F4B05001F4AED1A6D416A43120D1E4DA3
:100990008900AE6852B27658A6421CD0062159563C
:1009A00091421CD012215956914222D01E215956F3
:1009B000914220D02A2159560324914210D0134B42
:1009C00019781A708171BFF35F8F00220B4B1A6088
:1009D0008CF3108870BDAB680D4C5C50EFE70024C1
:1009E0006100091989005B18FF21997109499980F3
:1009F000E5E70124F4E70224F2E7C046240100D031
:100A0000D4100020AAAA000000ED00E0692900200F
:100A1000C100FF1001BDFFFF10B5084B084C82B0AC
:100A200001000093002205232000FFF7B3FD0028FA
:100A300001DB1F23181A02B010BDC0466052FF1020
:100A40006D290020024B9C4661448900016070477B
:100A50004000003470B5114C114DAC420FD2FF264E
:100A60002368002B0CD0FFF7E3FD01002000FFF707
:100A7000E9FFA680BFF35F8F0834AC42F0D370BDAE
:100A8000FFF7D6FD01002000FFF7DCFF2671BFF362
:100A90005F8F0834AC42E3D3F1E7C046F416002080
:100AA000FC16002010B50400FFF7C2FD0100200075
:100AB000FFF7C8FFFF232371BFF35F8F10BDC04650
:100AC00010B504000120FFF7BFFD034BC3189B00C6
:100AD0002360BFF35F8F10BD40000034034B9C4682
:100AE000614489000160BFF35F8F704740000034AC
:100AF0000A4B1968EFF3108072B60A68002AFCD01E
:100B0000BFF35F8F1B68BFF35F8F00221A6080F313
:100B1000108840BF002000217047C04648290020AF
:100B2000F0B5DE4657464E464546E0B583B0EFF396
:100B3000058203231340B54A99005258009190460C
:100B400001229A409346B24B1A60B24B01935B4626
:100B5000B1484363434608229B5E9946002B3ADA2C
:100B600043469B881BB2002B00DB9DE043469B79EC
:100B7000002B00D0E1E0434608241C5F002C20DB62
:100B800043465A6963001B19DB00D3189D68DC6873
:100B90006B1C00D103E1A048009984466144826A3D
:100BA0000B69AE1A9B1A9E4213D35A46036A1A4225
:100BB0000FD0994800F0B0FB8C4202DCC7D18542CF
:100BC000C5D940BF03B0F0BCBB46B246A946A0465B
:100BD000F0BD0D61EDE7424652695B0092464B4421
:100BE000DB009A4453469E68DF6800F095FB8F4215
:100BF000B6DC00D1F8E0002F00DAD9E052465346C7
:100C000054691B69019A934200D1CCE04146524697
:100C10000820085E52880004210010439847040011
:100C20000D0023002B4300D1C2E0002D00DBDFE0EC
:100C300030003900001BA94153469860D96000225A
:100C40009A5E002A00DA8BE743465D6953009C18E0
:100C5000E4002C19A768E4688C4200DD80E702D12B
:100C6000874200D97CE74646328108360DE08C4247
:100C700000D1C6E01E000023F25E002A0ADB53000A
:100C80009C18E4002C19A768E4689B18DB00EB189B
:100C90008C42ECDD53461A804B46338043469B889A
:100CA0001BB2002B00DA61E743461A69EFF31081AB
:100CB00072B61368002BFCD0BFF35F8F43469E884B
:100CC000012342465B42938036B21369BFF35F8FC4
:100CD00000221A6081F31088002E00DA46E74346AE
:100CE0005D69083342469C467700BF19FF00EF1943
:100CF000BB68604698460823D15E9246FC6800298E
:100D000007DA0EE0A24246D018000023C15E002997
:100D100006DB4B005B18DB00EB18DA68A242F1DD62
:100D2000524606800023FE5E3980002EDCDA9046B3
:100D300043469B79002B00D11DE700234246937167
:100D4000434646460821595E08364B1C00D138E719
:100D500047468946556902E006004B1C18D04B00F7
:100D60005B18DB00E8180A008C46E95E43881BB27A
:100D7000002BF1DA01235B42DC178360C4604A4533
:100D800003D031803B8903803A81E1464B1CE6D198
:100D9000B8464C46F2E69A684245B5D9C0E7631CAE
:100DA00000D0F8E605E7200023699847002825D100
:100DB000534642461B8813811269EFF3108372B6C3
:100DC00011680029FCD0BFF35F8F4246514652881C
:100DD0000A804246494651801269BFF35F8F002165
:100DE000116083F31088BBE6864200D803E7B7E6BC
:100DF000094800F091FA001969411DE76568246807
:100E00000FE7874200D835E744E7C0462C29002089
:100E10003C700540210BFF100040054070B52E4C82
:100E20002569002D04D00A212C48FFF70BFE70BD68
:100E30002B4E0321300000F065FAE660FFF7F8FB67
:100E4000284B03229C46D02322701B061B680121DD
:100E50006370254B6044A3600F2380002061022053
:100E6000638063694942A180198002311986473144
:100E70001D83585218315A5275325C3999521832C2
:100E80000131995218320131995218320131995277
:100E9000083518329D5202311832995218320131F8
:100EA000995218320131995218320131995218323F
:100EB000013199521832013199520C4B0C49DC60C6
:100EC00001303562FFF72AFC01210320FFF7EEFB1A
:100ED000084B1D60A7E7C0461C11002048290020D0
:100EE0000040054040000034FFFF10002C29002086
:100EF000210BFF1038600540004870471C1100208E
:100F0000F8B51F0008AB1B7804001600002B08D1B1
:100F100000F00AFA32003B00121A8B41002B00DA73
:100F200053E02269EFF3108072B61368002BFCD0F7
:100F3000BFF35F8F0223E15E63694A005218D2005B
:100F40009B18002937DB1A8862802269BFF35F8F04
:100F50000025156080F31088069A9E60DF601A6194
:100F6000079A5A615A8801325204520C101C002A06
:100F70001FD082B25880080410432669EFF310870F
:100F800072B63268002AFCD0BFF35F8FA2881A8045
:100F9000A1802369BFF35F8F00221A6087F3108856
:100FA0000B4923788C4601329A40E36863441A6007
:100FB000F8BD0120DDE72369BFF35F8F00221A60CF
:100FC00080F3108801204042F2E70020F0E7C0469D
:100FD0003C20000070B501000469EFF3108C72B67C
:100FE00020680028FCD0BFF35F8F02200D5E4C69A3
:100FF00068004019C0002418002D37DB2088488085
:101000000869BFF35F8F002606608CF31088E360E9
:1010100063880498013320615B0405985B0CA2602F
:1010200060611A1C002B1FD093B228046280184301
:101030000A69EFF3108C72B61368002BFCD0BFF373
:101040005F8F8B8823808D800B69BFF35F8F0022B9
:101050001A608CF310880B7801329A40CB680849EB
:101060008C4663441A6070BD0122DDE70B69BFF353
:101070005F8F00221A608CF3108801204042F2E753
:101080003C20000010B543890A1493421ADD530036
:101090009B184269DB00D3180469EFF3108C72B619
:1010A0002268002AFCD0BFF35F8F5A88090494B2EB
:1010B000090C8A4208D00369BFF35F8F00221A60CF
:1010C0008CF31088002010BD8022120214435C8033
:1010D000012302698371BFF35F8F002111608CF3DC
:1010E0001088044902788C469340C268012062440B
:1010F0001360E8E73C20000040787047F0B504003A
:101100000D0006267642F717C64636196F4100B520
:1011100082B08F4214D811D000F006F932003B00A3
:10112000121A8B41002B17DC002B47D0200029001E
:1011300000F004F902B080BCB846F0BD8642EBD99D
:101140000022002316001F0000F0EEF832003B00E2
:10115000121A8B41002BE7DD00F0E6F832003B006D
:10116000121A8B41002B0ADB00230193154B32002E
:10117000009315483B00FFF72DFF0028D6DB002326
:101180009C46B046114A124E736A9F4204D8B16A17
:101190008845CBD99F42C9D11168EFF3108072B650
:1011A0000B68002BFCD0BFF35F8F1368BFF35F8F1A
:1011B0006146196080F3108820BFE5E7002AB5D0AA
:1011C000CAE7C046F10AFF101C1100204829002080
:1011D0000040054070B5060000F0A6F8FA220400B1
:1011E0000D00002330000021920000F067FC8023F6
:1011F000001969411B06994202D30120024940426D
:10120000FFF77CFF70BDC046FFFFFF7FF0B5D646FD
:101210004F464646C0B504000D0082B0EFF3058787
:101220008946002F0ED0344900204B6AAB4203D3CD
:101230008A6A0130A24226D302B0E0BCBA46B14667
:10124000A846F0BD2D4B9846DB689A46434650466B
:101250001E7800F061F80B00514602000436B6001B
:10126000715820008E1A2900801A99418F4211DC92
:101270000ED020BF204A0020536A4B45DCD3926A2F
:101280000130A242D8D25B1B5A1E9341D8B2D3E799
:101290008642EED900F048F822002B00121A8B414A
:1012A000002B1ADB00230193154B220000934046CC
:1012B0002B00FFF78FFE011E0FDD0F4B5A6A4A45C8
:1012C00017D39B6AA34212D34046FFF7DBFE0A4ABC
:1012D0000020536A4B45AFD3D1E7074A0020536A39
:1012E0004B45A9D3926A0120A242A5D2CBE74A4539
:1012F000EAD120BFE8E7C046004005401C110020AD
:10130000F10AFF1010B5024A0248FFF721F910BD9B
:101310007C52FF109C2400200300416A0A00986A56
:10132000596A8A42FAD17047034B596A0A00986A8F
:10133000596A9142FAD1704700400540064A536A03
:101340009942FCD807D1044B02E05A6A914202D17B
:101350009A6A8242F9D3704700400540F8B5DE46EC
:101360004E4657464546E0B58B4605000A9918009B
:10137000160000F015FB0A9B6C001F02324B64192B
:101380009C46A4006444636881469F4200D967601C
:101390002B1FDBB29846012B30D9C02380229B0142
:1013A000E31812011A60294BAD0059599A460029D9
:1013B0001BD17301E026226853401E408023424621
:1013C0005B01E3181E60012A30D9802380229B0133
:1013D000E31812011A6053464A4667605A51F0BC3E
:1013E000BB46B246A946A046F8BD586900F0D8FAF7
:1013F000013043001B18033BFDD2DAE75B46012BAB
:10140000CBD1C02303229B01E3181A60023AA368E0
:101410001A42FCD07301E0262268AD0053401E4002
:1014200080230A4A5B019246E3181E605A462168EF
:10143000514003220A401A6001225B469A40A36889
:101440001A42FCD0C1E7C04600800040A024002022
:10145000F0B546464F46D646C0B51F00344B440053
:101460009C462418A4006444636888461600FF2B39
:1014700002D880235B006360031FDBB29A46012B16
:1014800030D9C02380229B01E31812011A60294B36
:1014900085005959994600291BD17301E02622681D
:1014A00053401E40802352465B01E3181E60012A10
:1014B00030D9802380229B01E31812011A60802317
:1014C0005B0063604B465F51E0BCBA46B146A8463C
:1014D000F0BD586900F064FA013043001B18033B6B
:1014E000FDD2DAE74346012BCBD1C02303229B0177
:1014F000E3181A60023AA3681A42FCD07301E0268E
:101500002268850053401E4080230A4A5B019146B1
:10151000E3181E6042462168514003220A401A60C7
:10152000012342469340A2681342FCD0C1E7C04663
:1015300000800040A0240020014B8000C05870476C
:10154000A0240020F8B5040021481E0017000D005B
:1015500000F026FA0100380000F022FA069B36045B
:101560001B031E432368002B20DB1A4B1A49E31888
:101570005A1E93418022920194465B421B0B174AEC
:101580001B0363441360164A13601F000A689743E5
:10159000FBD1144B2560E2182123A060136023685F
:1015A000002BFCDA0823E6601360F8BD3F232268B5
:1015B0001340AB42D9D1A3681B051B0D8342D4D184
:1015C000EE22E368D2021340B342CED1EDE7C0462B
:1015D000001BB7000040FDBF08C0004000E0004015
:1015E00000F000400430000010B580241C4BE405DE
:1015F0001C6000281AD001231A4C18431A4BDC61D6
:101600001A4C44401C62596298628021144BC905EF
:101610001960174817490860E021C9041960002AB9
:1016200007D18022144B12061A6010BD0E4BD861F0
:10163000EBE753019B1A9B009A18802312015B046D
:101640009A4209D213000D490B60074B5A60802261
:10165000094BD2051A60E8E7094B1A00F3E7C046C8
:1016600000B00540D3C007B0008005402D3FF84FC3
:10167000FCFF01000820014000A0054004290020D3
:10168000FFFFFF008023024A9B000B43D362704799
:1016900000800540142310B50100188804331B880E
:1016A000984710BD162310B50100188802331B8817
:1016B000984710BDF8B54746CE4680B50F1E19D0E5
:1016C00014239946043304000025012698464B460E
:1016D0001888434621681B88984701C4431E9841D7
:1016E000013540420640AF42F1D13000C0BCB9469E
:1016F000B046F8BD0126F8E7142370B50400188839
:1017000004331B880D000549984703000020002C76
:1017100001DB0130A04029009847C0465542000037
:10172000AA23064A1B0113608D235B00D360044982
:10173000044B19605368002BFCDA704700400240EC
:1017400000B0FA00006002407047C04610B5014882
:10175000FEF7E6FEA052FF1070B5074D074EB542EA
:1017600009D20024013E761BB60808CD9847230015
:101770000134B342F9D170BDFC16002038170020A7
:10178000054B064A06491A60064A074B1A601000C4
:101790000B689843FBD1704700E00040BFCDFBFED3
:1017A00008C00040FE7F3C0000F00040044BDB6CB2
:1017B000002B03D18022034BD2021A607047C0462F
:1017C000000011504C201150044A054B1A60054A84
:1017D0001368DB018033FBD17047C046FFFFFF0178
:1017E00000F0004008C000404022034B9A675A674F
:1017F0001A67DA667047C04600F0014010B5FEF780
:1018000035FF10BDF8B52749274C284D641AA6109E
:101810003200302E00D930222800920000F0D4F996
:10182000BC2C3BD830202F232C196407204A801B66
:10183000E40F9B1B052B16D93700002C02D0B300F8
:10184000771CEA50001B33199B004108EB18C900B4
:10185000C9181A605A6008339942FAD10123034229
:101860001CD09843C619B300EA50731C2F2E15D014
:101870009B00EA50B31C2E2E10D09B00EA50F31CA4
:101880002D2E0BD09B00EA50331D2C2E06D09B0032
:10189000EA50731D2B2E01D09B00EA50054B9D6032
:1018A000F8BDC0460000FF10C000FF10000000207F
:1018B000C100FF1000ED00E0002310B5294C82B0FC
:1018C000A367FFF72DFF0122274B1A60636C012BE2
:1018D000FCD10322254B1A60224A936B012BFCD1C9
:1018E000013300930121224A22480433FFF72AFEE4
:1018F000052301210093204A2048FFF723FE002200
:10190000022104201E4BFFF7A3FD00220121052028
:101910001C4BFFF79DFD0022002107201A4BFFF70B
:1019200097FD002200210820174BFFF791FD80232F
:10193000DB000093002200210920134BFFF70EFD6E
:101940000022104B00210620FFF782FD0420FFF744
:10195000F3FD0E4900F024F801000020FFF792FE8D
:1019600002B010BD008000403CB0004030B00040EC
:10197000002F685900800240008C864700C002405A
:10198000001BB70040597307006CDC0240420F0097
:1019900001480421014B184740110020B516FF10E3
:1019A000114A936F9B0813D210665166002905D027
:1019B000FFE7FFE7FFE7516F106F704704B500289E
:1019C00001D00020C04303F0EBFB002104BDC04662
:1019D000F0B5146E556E576F166FFFF7E5FF14667E
:1019E000556657671667F0BD000000D0132370B529
:1019F0001D78012D19D014DD1F48FFF753FE060096
:101A00001E48FFF74FFE1E4C80223100200000F0E0
:101A1000DBF8022D2DD01B48FFF73CFE1A4B186057
:101A200070BD1A4B164CA364F5E7184B144C236099
:101A30006360A360E36023616361A361E361236288
:101A40006362A362E36223636363A363E363236468
:101A50006364A364E36423656365A365E365236648
:101A60006366A366E36623676367A367E367A364AC
:101A7000D1E7064BA364CEE7534400005346000071
:101A8000D01800204C33000044290020911AFF1088
:101A900007B5604601880A0A0230DF2AFAD1C9B2C6
:101AA000820804D3028840880004104300E00068E4
:101AB000014A5050039007BDD018002051434343C2
:101AC000C9188C46110C83B24B4310B4040C61430B
:101AD00092B280B2504362431C041B0C001910BC2C
:101AE00059411304120CC018514161447047000061
:101AF000132310B512481C78FFF7D4FD0100012C08
:101B00000AD003DD80220F4800F05EF80E48FFF790
:101B1000C1FD0E4B186010BD0A4C5422200000F08D
:101B200053F80B4B6365A365E36523666366A366A1
:101B3000E36623676367A367E3672362E361E5E71F
:101B400053460000D01900204C33000044290020E7
:101B5000551BFF1007B5604601880A0A0230DF2ACC
:101B6000FAD1C9B2820804D3028840880004104325
:101B700000E00068014A5050039007BDD0190020D2
:101B800010B5040002F0CEFD002804D0034B041968
:101B90009C4200D810BD0248FEF7C2FC00000420A1
:101BA000AC52FF1010B502F0C7FD10BD0148042172
:101BB000014B184750110020B516FF10014B1B6850
:101BC0001847000050110020014B5B6818470000C7
:101BD0005011002010B5002800D110BD00F03EF9D2
:101BE000FBE7C04610B5094A0300146884B0002C16
:101BF00008D0012200910648524203A9A0470120C3
:101C000004B010BD00F076F90020F9E700290020AB
:101C1000D51BFF1000BEFDE7094A0300106800282D
:101C200005D00849C3188B4207D81360704706488F
:101C30000449C31810608B42F7D901204042F5E7F0
:101C4000FC240020000004207029002010B5FFF7BC
:101C5000E1FFC04670B5FFF77FFD074D074EB54267
:101C600009D20024013E761BB60808CD9847230010
:101C70000134B342F9D170BD381700204417002059
:101C8000030010B5080011001B68984710BDC0463E
:101C9000F0B5C64600B5437D07000D001600002BC9
:101CA00038D0002A2EDD00216A1E90466A5C037D32
:101CB0004C1C00200A2A0CD0A64216D043461B5DBD
:101CC00021000D3B5A4253416A5CDBB24C1C0A2A8C
:101CD000F2D1002BF0D1884217DB022110483B687B
:101CE0009847A64207D02000E8E7864203DD311A74
:101CF0003B6828189847AD19013D2B780D3B5A4297
:101D000053413B7580BCB846F0BD091A3B682818A2
:101D10009847E2E70368110028009847F2E7C046B9
:101D2000E853FF10F0B5DE4657464E464546E0B54F
:101D300085B017001C0006000D00FFF7F5FA002320
:101D4000314A12184B41802109068B4202D30122ED
:101D50002E4B52422E4908008A4603F041FA019068
:101D60006B1C03D1300003F027F80500002C26D0AF
:101D7000284B9846284B1C68002C15D0002F21D1E9
:101D8000264F02E02469002C0ED02368002BF9D0E6
:101D90003B68002B01D09C42F4D120002A00310086
:101DA000C0472469002CF0D1019B002B28D12800CA
:101DB00005B0F0BCBB46B246A946A046F0BD184BE4
:101DC0009846D7E7154B994602ABDF1D0A239B4681
:101DD00002E02469002CE7D02368002BF9D04B46A1
:101DE0001B68002B01D0A342F3D12A003100200050
:101DF000C0475B460122390020003B70C047E8E73E
:101E0000504603F0B5F9D2E740420F00FFFFFF7FD5
:101E1000F4160020911CFF10F0240020F82400206C
:101E2000811CFF100A4A1368002B05D10CE01A0030
:101E30001B691032002B07D09842F8D1002902D13B
:101E400003691360016170470029FCD01060FAE754
:101E5000F024002010B500F08DFA10BDF0B5CE468C
:101E6000474680B583B06B460600DD1D2870FFF73E
:101E70005BFA00231A4A12184B41802109068B4253
:101E800002D30122174B524217490800884603F03B
:101E9000A7F9164B81461C68002C14D0144F02E0A1
:101EA0002469002C0FD02368002BF9D03B68002B4D
:101EB00001D09C42F4D1200001222900FFF7E8FE66
:101EC0002469002CEFD14B46002B05D1300003B024
:101ED000C0BCB946B046F0BD404603F049F9F5E74D
:101EE00040420F00FFFFFF7FF4160020F024002087
:101EF000F824002070B5040002F05EFF0123010009
:101F0000050001222000FFF70DFF084B1C68002C84
:101F100006D06368002B05D098472469002CF8D1BF
:101F2000280070BD2469002CF3D1F9E7F0240020CB
:101F30007047C0460022014B1A7070476A29002082
:101F40004B790020FF2B0BD18B79002B08D1CB795B
:101F5000012B05D1082A03D9024B8A7809301A705F
:101F60007047C0466A2900200120704710B501293A
:101F700001D0012010BD13495379107909781B0253
:101F8000034300209942F5D15378012B08D0022B4E
:101F9000F0D1002064220021FFF726FB0120E9E7B1
:101FA000D37891781B021943DB0507D54A0A100044
:101FB00001231A407E331940FFF79EFB01204A0A95
:101FC0004042F5E76A29002000487047B454FF10EA
:101FD00070B5050014000120012909D153780020B3
:101FE000012B05D1637912791B021343072B00D013
:101FF00070BD21002800024A9F3301F05FFAF7E725
:102000000C54FF100123037000487047EC53FF107D
:102010004B780A781B0213438A7810B512041A43CE
:10202000CB781B0613439622D200934200D010BDFA
:102030000022012011004042FFF75EFB024B1860B6
:10204000024B19607047C046902400209424002061
:1020500010B5024B1878FEF747FB10BD6B29002026
:10206000154B70B51A68002A22D0EFF3108172B6B2
:1020700010680028FCD0BFF35F8F00200F4A596022
:1020800010701B68BFF35F8F186081F31088002405
:1020900000250B4E3078FEF71BFB002804D10024EE
:1020A00000252900200070BD3078FEF71DFBF8E701
:1020B000FA240025A400ECE7242900206C29002044
:1020C0006B29002070B5040000200E0001F016FB03
:1020D000002836D0002001F027FB002831D0FFF780
:1020E00023F90023184A12184B41802109068B421C
:1020F00016D2164D280003F073F8002821D00020D6
:1021000001F0FCFA00280FD101200021404200F02C
:1021100009FD03246442280003F02AF8200070BD62
:1021200001220B4B5242E4E7002001F0FDFA0028A7
:10213000EAD021003200002001F000FB041EEAD1A9
:10214000E7E703246442E9E740420F004C290020FE
:10215000FFFFFF7F10B5FFF7E7F800230E4A1218C4
:102160004B41802109068B4202D301220B4B524284
:102170000B4C200003F034F800280CD00120002183
:10218000404200F0CFFC002001F022FB0028F5D1F6
:10219000200002F0EDFF10BD40420F00FFFFFF7F67
:1021A0004C290020F8B5DE46574680B505000C00E6
:1021B000FFF7BAF80023374A12184B41802109066D
:1021C0008B4202D30122344B5242344908008A46E2
:1021D00003F006F8002803D1C0BCBB46B246F8BDE8
:1021E000002001F08BFA00284AD00026002C43DDA5
:1021F0002B4B9B4614E0A919002001F023FB07009C
:1022000001200021404200F08DFC002001F0E0FAA6
:10221000FFF78AF8224BF61918605960B4422BDD9B
:10222000002001F02FFBA71B0200B84200DD3A009E
:10223000002AE0D101200021404200F073FC002080
:1022400001F0C6FA002001F059FA002814D000204D
:1022500001F018FB0028E1D1FFF766F85B460F009C
:102260001A685B68002184460E4812184B419F4251
:1022700002D8D3D19445D1D9504602F079FFABE7CB
:1022800000200021064B18605960504602F070FF94
:10229000A2E7C04640420F00FFFFFF7F4C2900200D
:1022A000C818002020A1070030B52B4C85B00021B4
:1022B000200002F07DFF00281CD1284B1A68002A5C
:1022C00016D0EFF3108172B610680028FCD0BFF36F
:1022D0005F8F01242248596002781B68D2B20470D3
:1022E000BFF35F8F0020186081F31088002A17D099
:1022F00005B030BD01200021404200F013FC002059
:1023000001F012FA0500200002F032FF002DEFD09C
:10231000144B1B68002BEBD0134A10689847E7E773
:10232000FEF7EAFD0400FEF7FFFFFA220023920009
:1023300012184B41802109068B4202D301220B4B1C
:10234000524201210291002101910949200000918E
:10235000FEF7D6FDCCE7C0464C29002024290020FA
:102360006C2900209024002094240020FFFFFF7F90
:102370006120FF10D02310B51B0684B01C68FEF747
:10238000BBFDFEF7B9FEA04202D0002004B010BD94
:102390002A4B002100201B7801F070FD28480368BB
:1023A000002B47D00120FEF737FBFF23254C2649A1
:1023B00020701840FEF7B2F920780121FEF776F977
:1023C0000520FEF799F9002826D1082200211F4890
:1023D000FFF7F4FBFEF790FD0400FEF7A5FFFA22DD
:1023E0000023920012184B41802109068B4202D330
:1023F0000122174B524201210291002101911549FE
:1024000020000091FEF77CFD0028BEDB1248012170
:10241000FFF708FD0120B9E70120FEF715F90B4B86
:1024200001001800FEF75AFB002205200B49FEF7B9
:102430009FF9EBE7FEF736FBB4E7C0466856FF109E
:102440004C2900206B290020A922FF1024290020FC
:10245000FFFFFF7F6120FF10601100205120FF105F
:10246000004870475055FF1000487047FC54FF105B
:1024700010B5040017480378002B20D0002C06D19B
:10248000154B16484380063BFF3B038010BD052CCF
:1024900019D8134BA400E05812490123013804E075
:1024A00001330A800231142B0FD0C25C002AF7D10D
:1024B000C022DBB25B00920008481343E5E711211C
:1024C00000F01AF8DAE70020E0E7CA2303489B008F
:1024D000DBE7C0465429002009040000C82400207E
:1024E000E454FF10CA24002010B5024800F0D8F8C8
:1024F00010BDC0463C29002030B54B1E012900D13B
:10250000A7E0664A11780D092C0030349F2900D9C4
:10251000A2E00470012B00D1BEE00F21147821400D
:102520000C003034092900D998E04470022B00D106
:10253000B2E054782509290030319F2C00D990E071
:102540008170032B00D1A7E00F2121400C00303413
:10255000092900D987E0C470042B00D19CE094784D
:102560002509290030319F2C00D97FE00171052B0E
:1025700000D191E00F2121400C003034092900D90D
:1025800076E04471062B00D186E0D4782509290035
:1025900030319F2C00D96EE08171072B00D17BE098
:1025A0000F2121400C003034092966D8C471082B52
:1025B00000D171E014792509290030319F2C5FD8B2
:1025C0000172092B68D00F2121400C0030340929F9
:1025D00058D844720A2B5FD054792509290030312C
:1025E0009F2C52D881720B2B56D00F2121400C000A
:1025F000303409294BD8C4720C2B4DD0947925095D
:10260000290030319F2C00D9073101730D2B43D0A5
:102610000F2121400C003034092901D937310C0039
:1026200044730E2B38D0D1790C09220030329F2907
:1026300000D9073282730F2B2ED00F220A401100CF
:102640003731092A01D830321100C173102B23D041
:1026500010300023037030BD07345AE737310C00C7
:1026600063E707316CE737310C0074E707317DE72A
:1026700037310C0085E707318EE737310C0095E7DD
:1026800007319DE737310C00A3E70731AAE737315F
:102690000C00C4720C2BB1D1C018DAE73C29002021
:1026A00010B588B004000D2200216846FFF786FAB5
:1026B0000D22002104A8FFF781FA4B236A466846E1
:1026C000137004A90D2202F04BFD152108222000F1
:1026D0006944FFF779FA08B010BDC046F8B500F0BC
:1026E00043F90C23194DFF22AB6705201849FEF76B
:1026F0003FF8184C402200212000FFF75FFA4027E6
:10270000002301262121144A66702783A2601360EA
:1027100063545F31618445396354104A10496360E2
:10272000E2602787A1620B606362E26202F078FDDB
:1027300080239B052E64EB6490230A4A0120EA5013
:102740008022094B5202DA64F8BDC04600001150E5
:1027500001060020002500208400105000011050C8
:102760008000105010D001000020115010B5012140
:102770000520FDF79BFF10BD10B500220021024887
:1027800000F012F910BDC04620250020044B19703E
:10279000002904D080219023024A8902D150704739
:1027A00066290020002011500B785B0602D14B787F
:1027B000052B00D070478A78014B1A60FAE7C046B3
:1027C00000001150F0B5C646C87800B58007830FE9
:1027D0001800012B60D08F780A794B797F2139401E
:1027E000FC091B024E001343334D32195201AA1843
:1027F000977001276740577000275B055B0DD77006
:102800001383D076B846CA00012C32D02B4FBC4679
:102810008F016244BC46AC446746BA6047461760C5
:10282000002932D0264AC900904662464144516090
:102830003F223F339343022837D0224937190A6891
:102840007F01D3180B602049EF19FA608B422ED814
:1028500036197601AD19EB7E1C499B064A4013439D
:102860008022120613436A681360012080BCB846B8
:10287000F0BD174FBC468F016244BC46AC4467466E
:10288000BA6247461760002908D1002364012C1959
:102890006360104BE360E8E70020E7E70B4AC900FC
:1028A0009046624641445162C2E75B00C5E7FEF7CD
:1028B0004DFFFA68CCE7C046002500208400105088
:1028C0000400105008290020FF0F10500000105085
:1028D000800010500001105010B502F0A1FC10BD96
:1028E00010B57F200C0020404000E40911000019C1
:1028F0001A00034B4001C01800F056F8012010BD2B
:10290000002500207F23180010B50840CA090B429B
:1029100003D107497D3B9B1A8B66400080188022BB
:10292000044B40010021C018120102F071FC10BDDF
:1029300000201150002500207F22130010B50B400D
:102940000A4200D110BDC9095B005B1804485B0155
:10295000C018002300220349C37002F059FCF1E7BC
:1029600000250020FFF7FFFF80220A4B520410B51C
:102970001A60094B09491A6010000B689843FBD193
:102980008022002152010648FFF718F90922054B61
:102990005A6710BD00E0004000F0004008C0004051
:1029A0000000105000001150002310B5C382013305
:1029B000828283760161040002F022FC002804D0A8
:1029C00080219023074A8902D150200002F0D8FBD1
:1029D000002802D00123237710BD200002F008FC5C
:1029E000FAE7C046002011507047C0467047C04605
:1029F00000207047002070477047C0467047C046AF
:102A00007047C0467047C046024B5878431E9841F5
:102A1000C0B27047A81F0020024B18784007C00FB3
:102A20007047C046A81F0020F0B5D6464F46464620
:102A3000C0B5314B07009A461B780E00FF2B01D022
:102A4000012044E0002941D0002154222B48FFF707
:102A5000B5F800222A4C2B4B20001A70FEF722F802
:102A6000294B1C60294C2000143CFEF729F820005B
:102A700001F00CFE264B274D1C60274B002B2BD062
:102A80002800FFF7BFFA254B2A7818602449002454
:102A9000894622490023884610E043461B686201AC
:102AA0009B18002B12D05B68002B0FD098472A7818
:102AB0000134E4B2511C2300A1420FDBA242ECD846
:102AC0009B1A5B014B445B68002BEFD10020E0BCFC
:102AD000BA46B146A846F0BD2A78D7E7534631003A
:102AE00038001F70FFF7FAFD0028EFD03800FFF71D
:102AF0003DFE0120EBE7C04694110020A81F0020F6
:102B0000A01F002067290020FC1F00208C1100203E
:102B100000200020652900200520FF10F81D00205E
:102B20000C56FF10F0B5DE4657464E464546E0B51A
:102B3000C84B91B002931B78FF2B00D13EE1C64BEE
:102B4000C64E9B465F46C64B0DAC0193C54B0093EA
:102B500035686A69EFF3108172B61368002BFCD0F8
:102B6000BFF35F8FA9612800210001F0BDFB6A69F6
:102B7000AB69BFF35F8F0021116083F310880028D9
:102B800000D11BE16378082BE2D89B00FB589F46DD
:102B90006368002BDCD0A0689847D9E77F222179B1
:102BA000AF4D0A405300EB189846C8098044404690
:102BB0000123303005799D430571057903339D4329
:102BC0000571002A00D100E14346A74A1B7D127817
:102BD000934200D3EFE0A54A5B011568ED18002D84
:102BE00000D1EBE0A36862792078AD69A847AFE730
:102BF0009F4A1378002B00D1E0E01378013BDBB251
:102C000013701378002BA3D10122954D01212B784D
:102C1000042013432B703423EA5C8A43EA54EA5CB1
:102C20008243EA540133EA5C8A43EA54EA5C824311
:102C3000EA54237800209B4600F0A0FC6022237910
:102C40001A40602A00D1EFE0402A00D1F5E0DB060F
:102C5000DB0E012B00D113E1022B00D1C7E0002BCA
:102C600000D0E1E0202A00D11CE2002A00D0DBE005
:102C70006379092B00D9D7E07E4A9B00D3589F4641
:102C8000774D2B78DB0700D462E7FFF7BBFE5FE7E9
:102C9000019BDB78DB0700D45AE76068FFF7A6FEEC
:102CA00056E76F4D2B78DB0700D451E728780007F3
:102CB000C00FFFF7A5FE4BE723786A4999468B467C
:102CC000694B6A4998468A4639001A784746002374
:102CD000B04600254E46894610E053461B686A01FF
:102CE0009B18002B00D176E0DB68300098473A78DB
:102CF0000135EDB2511C2B008D4244DC9542ECD3E2
:102D00009B1A5B015B44EFE7237858499946564B81
:102D10008A4698463100BB464E461A780025002365
:102D2000474689460FE053461B686A019B18002BF3
:102D300055D0DB68300098473A780135EDB2511C28
:102D40002B008D4207DC9542EDD39B1A009A5B0164
:102D500094466344EDE7019D542200212800FEF7CC
:102D60002DFF1022FF214448FEF728FF28002022D3
:102D7000FF2114304E465F46FEF720FF00F0F4FBC3
:102D8000FFF73CFEE4E6364D542200212800FEF712
:102D900015FF1022FF21281DFEF710FF280020221A
:102DA000FF21143046464F46FEF708FF00F0DCFBDB
:102DB0002379AB70CCE6501C984213DA11B0F0BC0A
:102DC000BB46B246A946A046F0BDA368627920780A
:102DD00000F0E8FBBCE646464F46214DE6E74E468E
:102DE0005F46CBE71F4D9B1A5B015D19FAE6702326
:102DF000217A0B4218D1C80982460F330B405B0081
:102E000098461948EB1853441B7D00789946834235
:102E100066D216485B01006881469944002A00D1B9
:102E20005FE14B46002B68D120780021FFF76AFD57
:102E300080212078FFF766FD8AE6104800F09EFBAF
:102E4000012158460EAAFFF7C3F8002800D07FE6FC
:102E5000EAE7C046941100206455FF1000200020CE
:102E6000A81F00200C56FF1065290020F81D002027
:102E7000672900208855FF10AC1F0020D11FFF10CC
:102E8000237A0F2BD0D8CF4AEB181B791578AB4299
:102E90003ED3691C9942C7DB5D1BCB4B6D01ED181E
:102EA000686900F06BFB012158466B690EAA9847D0
:102EB000002800D04CE66022150023791D401A42FC
:102EC000B2D163790A3B012BAED800F057FB63798E
:102ED0000A2B00D199E158460EA900F0D9FA37E63D
:102EE000431C4B4500DAF7E04B461B1A5B01994641
:102EF000B5488144002A00D1F3E04B46586900F000
:102F00003DFB4B46012158465B690EAA98479CE75A
:102F1000AE4A5B011568ED18002DC1D184E7A37995
:102F200099466B789945D6D06B78002B00D033E169
:102F30004B466B70002B00D12BE148460138C0B2E4
:102F4000FFF792FA002800D17EE143780793022B25
:102F500000D079E10122C179B1468B1149111340AA
:102F60000A40302112015B0113432A78A8468A43A4
:102F700013432B7009239A4682445646BA46C378B7
:102F800082781B021343C31805938E4B04938E4B18
:102F900008938E4B09938E4B0A93059BB34200D83E
:102FA00055E1737801220B2B03D13378F278F618B0
:102FB0007378042B00D044E1059B00279B1B9BB238
:102FC0000693049B0B921D78002303931BE0099A40
:102FD0007B011568ED18002D00D132E13100584613
:102FE0002B69069A98478446082803D9069A824294
:102FF00000D313E1049B01371D78FFB26B1C0397CC
:103000009F4200DD1DE1BD42E1D8039B5D1B089B93
:103010006D019C466544E1E76B780CAA023213709F
:10302000584601230EA900F049FA91E5E3881A0AEF
:10303000D8B20F2A00D9F7E666499300CB589F46CD
:103040000EA800F0A1FA5846A179FFF795FB0222DD
:103050002B7813432B707BE5E388012B00D0E3E64C
:1030600008222B78584693430EA92B7000F010FAD3
:103070006EE5022029780CAB9A1C8B068908DB0FC1
:1030800001400B431380584602230EA900F016FAA4
:103090005EE5E388012B00D0C6E608222B781343B7
:1030A0002B7018E7237A0F2B00D9BDE6EB181D799A
:1030B000444B1B789D4228D2444B6D011B685D191F
:1030C000002D00D1B0E6686900F058FA0121584699
:1030D0006B690EAA9847B8E6002A00D0A4E6002340
:1030E000994662790220130003928343012B15D085
:1030F000002A00D098E62B004344534430331B7918
:103100000CAA9B07DB0F0232BCE75A1CAA4200DA6A
:103110008AE6ED1A2C4B6D01ED18D4E7E388002BFD
:1031200012D1029B1878039B012B23D0FFF7EAFBF7
:1031300043460221EB18534430331A790A430121E4
:103140001A711A790A431A714B46002B00D1FFE419
:10315000586900F013FA4B4601215B690EAA5846E4
:103160009847002000F00AFA3523EB5CDB0700D516
:10317000EEE4B0E6FFF7E0FB43460221EB185344D0
:1031800030331A798A431A711A7903998A431A716A
:10319000DAE7FFF733FC9EE600215846FFF7F6FA20
:1031A0005846FFF799FBAB78074903930491054B09
:1031B000064998461A780591002329001D008A4681
:1031C0001BE0C046652900200C56FF10F81D0020AA
:1031D000BC1F0020B055FF10059B6A011B689B189F
:1031E000002B4DD0DB685846984743461A78013586
:1031F000EDB2511C2B008D422EDC9542ECD39B1A74
:10320000049A5B0194466344ECE70CAB9A1C584665
:1032100001230EA9157000F051F999E40B9A012AC7
:103220004FD0002A3CD00023B07804E00133DBB259
:103230000F71934234D2C118C9B241440D79FF2DA8
:10324000F4D04E464546574600236B70ECE54E469B
:103250005746FFF7D1FB3EE6554654220021280091
:10326000FEF7ACFC1022FF21281DFEF7A7FC28006A
:103270002022FF211430FEF7A1FC039BAB7057E620
:103280005546FAE7FEF7A0FE021E00D1CCE5D37842
:1032900091781B020B4358460EA900F00FF9D4E5B4
:1032A00065463B002A0031000A9800F08DFEAC46CE
:1032B000049B039A1B7866440133934200DB6CE65F
:1032C000BFE7174B29699942ADD1079AABE7FFF7E2
:1032D0008FFB021E00D1A7E5584613780EA900F017
:1032E000EDF8B2E52189FFF7C3F8021EF4D19BE5A2
:1032F000022A0FD0FFF77EFB021EC8D194E5FFF72C
:10330000AFF8021E00D18FE5122358460EA900F037
:10331000D5F89AE5FFF7A8F8021EB8D184E5C046B3
:103320008939FF10F8B557464E46DE4645460C0033
:10333000E0B516001F00002A3CD01F4B00259A461E
:10334000702399461D4B9B4617E05B4620009978F9
:1033500000F0FCFD00281FD021004046FFF732FAA4
:10336000002819D0A378DA09012A1CD00A9A01355D
:1033700013702378E418B5421CDA6378052B0BD15F
:10338000E3789B079B0FBB4206D153464A461B7806
:103390009846A3781A42D8D00020F0BCBB46B2466B
:1033A000A946A046F8BD0B9A013513702378E4189E
:1033B000B542E2DB0120F0E794110020A81F0020B5
:1033C000702270B5094B0C001D788B781A4201D021
:1033D000002070BD064B2000997800F0B7FD002852
:1033E000F6D021002800FFF7EDF9F2E79411002054
:1033F000A81F00200B007F2010B51840DB093433D4
:103400004000044AC018044B1168C01800F05AFD6F
:1034100010BDC046FC1F0020A81F00200B007F200D
:1034200010B51840DB0934334000044AC018044B7F
:103430001168C01800F06EFD10BDC046FC1F0020D2
:10344000A81F002070B57F240F480C4064000419A9
:10345000CD09641930342079C00701D5002070BD32
:10346000012625790948354300782571FFF738FA98
:103470000028F4D101222379934323712379033265
:1034800093432371EAE7C046A81F0020941100204F
:1034900070B5094C0600082220000D00FEF794FBD1
:1034A00000238021E360A3602B7830009943002241
:1034B0000023FFF7C7FF70BD881F0020F8B5CE4678
:1034C00047469046264E80B58146082230000D00C2
:1034D0001F00FEF779FB4346B3600023F381EC79CC
:1034E000AB7924021C43231CBC4200D93B1C9FB275
:1034F000B381002C0ED0002F18D04346002B2CD0C7
:103500003B1C402F1BD89FB233787F2B1CD8002147
:10351000144A0FE080212B7800229943484600236B
:10352000FFF790FFC0BCB946B046F8BD7F2300222C
:10353000317899433B004846FFF784FFF2E7402388
:103540009FB233787F2BE2D9064C3A0041462000E7
:10355000FEF73AFB80212200ECE70020E2E7C046BC
:10356000881F0020481F002010B5142200210248A7
:10357000FEF724FB10BDC046881F0020014B1861D8
:103580007047C046881F002010B5054C0100082276
:103590002000FEF719FB0023A360E36010BDC046C6
:1035A000881F002070B5384C1D0023780600DA090A
:1035B000C9098A4210D00020002D00D070BD210022
:1035C0003000FFF7F1F82369002B03D0220003211C
:1035D000300098470120F1E7A0687F2B05D800282C
:1035E00034D02A002949FEF7EFFAE289A16852197E
:1035F000E38892B24919E281A160934214D03F2D31
:1036000012D9A389981A051C80B240282AD820789C
:10361000ADB27F2828D800219A4232D01B4A2B0015
:103620003000FFF70FFFC9E72369002B05D0220008
:1036300002213000984700280AD0802123780022F8
:10364000994330000023FFF7FDFEB7E70020B5E700
:1036500000213000FFF756F930008021FFF752F9C2
:103660000120ABE74025D2E79A4207D0074C2A0059
:103670002000FEF7A9FA80212200D0E78021002255
:10368000CDE70022CBE7C046881F0020481F00205E
:1036900070B50500FFF7B8F9002800D170BDFFF73D
:1036A000BBF90028FAD1C8236B43124CE618F17815
:1036B0000029F3D010331C19200000F0FFFD3F2833
:1036C000ECD90020F178FFF795FE0028E6D0200025
:1036D00000F0F4FD3F2808D9074BEA01D218F17831
:1036E00040230020FFF7AEFED8E7F1780020FFF777
:1036F00095FED3E7801E0020FC1D002010B50400BD
:10370000FFF782F9002801D1002010BDFFF784F9EE
:103710000028F9D1C8226243024B01309B181B7963
:103720001840F2E7801E0020C82310B5434302482A
:10373000181800F0A5FD10BD901E0020F0B5C8249B
:10374000C646802344431F4F1034050000B53C1982
:103750005B029A4200D31C4A200092B200F012FE93
:103760008046FFF751F9002803D1404680BCB84697
:10377000F0BDFFF751F90028F7D1C8266E43BE19F6
:10378000F378002BF1D0200000F098FD3F28ECD911
:103790000020F178FFF72EFE0028E6D0200000F090
:1037A0008DFD3F2808D9094BEA01D218F178402352
:1037B0000020FFF747FED8E7F1780020FFF72EFE44
:1037C000D3E7C046801E0020FFFF0000FC1D002044
:1037D000F8B50600FFF718F9002801D10020F8BD60
:1037E000FFF71AF90028F9D1C82474432500134FB4
:1037F0002435ED19280000F043FD0028EED03F19D4
:103800000020B978FFF7F6FD0028E7D00C4BF40153
:10381000E41821002800402200F0B4FDB978051E0C
:1038200008D0030022000020FFF70CFE0028D5D0AE
:103830002800D4E70020FFF7F1FDCFE7801E00202D
:103840003C1E002070B5C82444430C4B0500E4180E
:1038500080235B029A4200D3094A200092B200F012
:1038600059FE0600200000F00BFD3F2801D8300073
:1038700070BD2800FFF7ACFFF9E7C046A41E00208A
:10388000FFFF0000C82310B543430248181800F09A
:1038900015FD10BDA41E0020F0B50025184C83B006
:1038A000C82200212000FEF789F9164B21001D7067
:1038B000FF236371E1235B02A36020000823402201
:1038C000A37338310095073B103000F0A3FC2700AC
:1038D0000123210020002600402278310093B837D0
:1038E000243000F097FCC0363800FDF7DBF83000DC
:1038F000FDF7D8F8E56127622663656303B0F0BD84
:10390000801E00207C1E00200B4B196B00290AD062
:103910001A6A002A0DD000221A621A63DA610022A4
:103920005A63012070471A6A002AFAD0D9611962D5
:10393000F7E71A63F3E7C046801E002070B50F4C0E
:10394000052200212000FEF739F90D4D2B78DA070A
:1039500007D50C4C9B070CD50121200000F0B6FECA
:1039600070BD2000103000F091FE2B78054C9B07B5
:10397000F2D4200000F08AFEEEE7C046801E002050
:103980007C1E0020A41E0020F0B54B79060083B0F9
:10399000022B02D18B79022B03D00025280003B023
:1039A000F0BD214FBB78002BF7D18B7809253B70F8
:1039B0000C780C196378242B0BD1082A02D80FE05D
:1039C000AA420DD32378E4185D196378ADB2242B95
:1039D000F6D0052B08D0042B02D163790A2B11D025
:1039E0000020FFF755FED9E721003000FFF7E8FC83
:1039F0000028D2D0A3787B7023785D19E41863780F
:103A0000ADB2E8E7094B2778019301330093022216
:103A100002233000E119FFF785FC0028BDD00E35E8
:103A2000ED19ADB2DCE7C046801E0020821E0020EA
:103A3000F8B5602314001278050013400020202BF5
:103A400007D1304A6379277916781B023B439E429F
:103A500000D0F8BD6378222B1AD007D8202B34D0A1
:103A6000212BF6D101293ED00120F2E7232BF0D102
:103A7000012940D00329F7D1234B002BF4D0E17862
:103A8000A37809020020194300E000BF0120E0E70D
:103A9000012930D00329E7D101252E00A378E4784D
:103AA000023924021C431471264024321000714054
:103AB00000F00CFE154B002BD6D062080020310020
:103AC0002A4000E000BF0120C3E701290BD00329F1
:103AD000CAD10F4B002BC7D0083200201100FEF7CF
:103AE00097FA0120B5E7072321002800094AFFF7CC
:103AF000E5FC0120ADE721002800FFF7C9FC01200B
:103B0000A7E7C046801E0020000000000000000063
:103B10001120FF10881E0020F0B54F464646D646BD
:103B2000364DC0B5EA781F0080460C00AB788A425B
:103B30003BD08B4210D00020E0BCBA46B146A8462C
:103B4000F0BD2F4B002B04D02E4800F0AFFB002817
:103B500051D00020FFF79CFDAB78A34201D001209B
:103B6000EAE7294B002B02D0002000E000BF002034
:103B7000FFF72EFE0028F2D1244C200000F080FB3D
:103B80000028ECD1002FEAD0BF06E8D1243C404603
:103B9000A178FFF72FFC0028E1D000230022404647
:103BA000A178FFF74FFC0120C6E710239A46184E74
:103BB000AA4431005046BAB200F0ACFC154B002BC1
:103BC000BFD06B79FF2BBCD0002FBAD0F219914631
:103BD00003E00136B145B4D06B7932789A42F8D11E
:103BE000504600F063FB0028F3D15346103B59794F
:103BF00000E000BFEDE700E000BFAAE7801E002064
:103C000000000000901E002000000000A41E002004
:103C1000FC1D0020000000009322F0B5134C85B07D
:103C2000002120009200FDF7C9FF2300200080261C
:103C300040270F4D4D337600FF3329300295009316
:103C400000220023002103970196FF3000F0D6F9EF
:103C50004035201D283400230122002103970295BE
:103C60000196009400F0CAF905B0F0BD442100208F
:103C7000C420002010B5054C200000F0F5F920000C
:103C80002538FF3800F0F0F9012010BD6C2200202B
:103C900070B5084C002520003130FF30257000F051
:103CA000F5FC20000C3000F0F1FC2A23FF33E55432
:103CB000657170BD44210020F8B557464546DE4683
:103CC0004E46E0B54B7980460F00FF2B27D1424B83
:103CD0000C7899462A234946FF33CB5C002B1ED132
:103CE0004E79002E1BD1BB783C190B703B79002B11
:103CF00012D098235B004B449A460C234B449B46BE
:103D0000A5186378052B05D110E02378E4186378B3
:103D1000052B0BD0A542F8D8E01B80B200E00020B4
:103D2000F0BCBB46B246A946A046F8BDA542F3D9B1
:103D300021004046FFF744FB0028F0D0A37801366D
:103D4000F6B2DB09012B29D0504600F09FFC2A2354
:103D50004946A278FF33CA54637922791B02134380
:103D60001E4A5B0594465B0D942163445A425341BD
:103D70004A4602204900525C5B00824313434A4694
:103D8000535451464046083900F0D6F90028C6D0B1
:103D90002378E4183B79B342B3D8BDE7584600F026
:103DA00075FC5A46A3780C3A5371637921791B024A
:103DB0000B430A495B058C465B0D634459424B41FA
:103DC000022011795B0081430B43594600200839DA
:103DD000137100F07FF9DBE74421002000FEFFFFB4
:103DE00070B505002A201F4CFF30205C1E0063794F
:103DF000884203D000208B421DD070BD9A235B0007
:103E0000E35A002B0DD1184B002B04D0002017498A
:103E1000B2B200E000BF2800154900F08DF9012082
:103E2000EBE72000962331305B00E158B2B2FF305F
:103E300000F070FBE7E70F4B002B04D031040020AB
:103E4000090C00E000BF0C4C2800210000F042F9F2
:103E50000028E4D132002100280000F007F90120F9
:103E6000CBE7C0464421002000000000C420002011
:103E70006C220020000000004821002000B5030053
:103E800083B0002910D00020012B07D80A78002A1F
:103E900004D00B48C2540120012A01D003B000BD58
:103EA0001800FEF7C1FDF9E7012301A900200B80EE
:103EB000FEF7BAFD0028F1D00122014B1A70EDE7A0
:103EC0009C1F0020037870B5DB0704000E00DD0F97
:103ED000002B17D103785B0701D5280070BD0121A5
:103EE0003000494201F074F92378DB07DD0F002B25
:103EF0000AD123785B0708D40422237801251343D1
:103F0000237002E00025E8E70025300001F030F9D9
:103F1000E3E7C04670B50C000121060049422000CD
:103F200001F056F933785B07DD0F002B04DB20002E
:103F300001F01EF9280070BD3378DB0704D4042299
:103F4000337893433370F2E70025F0E74379027941
:103F50001B021343C2785B0592075B0D920F022A86
:103F60001DD0032A0CD00020012A08D102394A4270
:103F70005141124A9446614499424041C0B270474F
:103F800002394A1E91410E4A494211408022D20014
:103F900094460020614499424041C0B2EFE70229B3
:103FA00005D0002040229A424041C0B2E7E7054ACE
:103FB000981843425841C0B2E1E7C046FF030000F1
:103FC00040FCFFFF00FEFFFF8A1870B5914207D248
:103FD0007F264C78052C04D00C7809198A42F8D831
:103FE00070BD34008D782C4064000419ED096355D0
:103FF0000C7809198A42ECD8F2E7C046F0B5C646FB
:1040000000B582B0150008AA40CA040017880BAAA0
:104010001288012090460A00217802408143200046
:10402000114321703A00009331000123083000F061
:10403000F1F8002E01D0002F08D10A9B0120636007
:104040004346638002B080BCB846F0BD26001C36F3
:104050003000FCF727FD0023002D01D0330000269F
:104060006361A661E9E7C04601207047F8B5022404
:104070000B7807001C4063425C41144B64421C40B7
:10408000134B08009C4608300D001600644400F0F5
:10409000F7F8002807D1002E05D0344203D10124BF
:1040A0002B781C4201D00020F8BD38006978FFF75A
:1040B000A1F90028F7D02B781C42F4D1002300226C
:1040C00038006978FFF7BEF9EEE7C04640FEFFFF13
:1040D000FF010000F8B50D000835060028000C00AF
:1040E00000F0CEF8002803D0012723781F4201D02A
:1040F0000020F8BD30006178FFF77CF90028F7D088
:1041000028006288616800F03DF92378051E0BD015
:104110001F42EDD10300626830006178FFF792F929
:104120000028E5D02800E4E71F42E1D130006178A3
:10413000FFF774F9DCE7C046F8B5CE46474680B5D0
:104140008A8905000C000B78002A07D101261E423F
:104150003FD00020C0BCB946B046F8BD9B0734D55F
:10416000FE2380261B029946B60027000837380038
:1041700000F0A4F88642ECD80122237890461A4237
:10418000E7D128006178FFF735F90028E1D0380041
:1041900000F094F8864231D841462378628819426B
:1041A000D7D14B461840061C904200D9161CB6B217
:1041B00000226178002E00D0626833002800FFF7EB
:1041C00041F90028C5D03000C4E7114B402699467C
:1041D000CBE74978FFF70EF90028BAD02278638838
:1041E0001642B6D100226178002B00D06268280008
:1041F000FFF728F90028ACD06088ABE74246237867
:104200001A42A6D128006178FFF708F9A1E7C04655
:10421000C0FF0000F0B5C64600B5040006A805784A
:104220008020884617001E000002824226D8E068DF
:10423000002803D00121494200F0CAFF206900286C
:1042400003D00121494200F0C3FF434623607304B9
:104250005B0CED031D430023E0686381A780E580CC
:104260002381002801D000F083FF2069002801D0BD
:1042700000F07EFF012080BCB846F0BD0020FAE7C8
:1042800010B5048941898288A3B288B28C4207D3D1
:104290001B1A9BB2101C9A4200D9181C80B210BD88
:1042A0005100091A5B189BB2F4E7C04603894089A4
:1042B000181A43425841C0B27047C04610B504892D
:1042C00041898288A3B288B28C4207D31B1A9BB261
:1042D00000209A4201D9D21A90B210BD5100091A99
:1042E0005B189BB2F4E7C04670B5040000690E008D
:1042F000002803D00121494200F06AFF2589608926
:10430000A288A9B283B285422CD3CD1AADB2002DBA
:104310002ED0AA4208D2914230D3891A8BB263813F
:104320009A4203D89B1A9BB29A42FBD9E288216831
:104330005204520C53433000C918FDF745FC638901
:104340000125591C89B2A2888B4213D90021520041
:10435000891A89B220696181002801D000F008FF24
:10436000280070BD5500ED1A4D19ADB2002DD0D109
:10437000618989B252009142ECDBE9E789188BB27E
:104380006381CDE7F0B546464F46D646C0B5060038
:10439000006989469046002803D00121494200F077
:1043A00017FF31897289B5888BB294B2914254D388
:1043B0001F1BBFB2002F4AD0BD4205D2AB4251D223
:1043C0005B199CB22F0074814346B8453DD89FB21B
:1043D000A54203D8641BA4B2A542FBD9F288316878
:1043E0005204520C904662432B1B9BB289184246E2
:1043F0009F4225D953439BB21A0048469A46FDF77F
:10440000E3FB434648467D1B64195C4331685044D6
:10441000A2B2FDF7D9FB7189B588CB199BB26A00AE
:10442000994216D99B1A9BB230697381002801D03A
:1044300000F09EFE3800E0BCBA46B146A846F0BD8A
:1044400048467A43FDF7C0FBE5E73B1CBFE77389AD
:104450009BB26A009342E7DBE4E76F003F1BDF1982
:10446000BFB2A7E75B1B9CB2ACE7C046F8B504003F
:10447000C0680E00002803D00121494200F0A8FEC8
:10448000258920896189A288ADB283B28FB2884222
:1044900029D3DB1B9BB29A4209D8E779FF0906D1E1
:1044A000E068002801D000F063FE3800F8BD9542B6
:1044B0001ED32B009B1A9BB29342FBD2E28820684A
:1044C0005204520C53433100C018FDF77DFB6B1CA6
:1044D0009BB2A2889D4218D9002352009B1A9BB21E
:1044E00001272381DCE75100C91B5B189BB2D2E78F
:1044F0002B00E28820685204520C53433100C0184C
:10450000FDF762FB0135A288ABB252009342E7DBB4
:10451000E4E7C046F0B557464546DE464E46E0B5B0
:10452000140005000F0083B0002A75D0C068002871
:1045300003D00121494200F04BFE2E89E9796A89B6
:10454000AB88B6B292B2C90945D1964200D36DE0AC
:1045500059008A1AB21892B2002189469A4234D27E
:104560009A1A111C92B2A24200D9211C8AB2914619
:10457000EA885204520C90464A46B21892B29246C9
:104580004A46D21A92B2934634009E4203D3E41AAA
:10459000A4B29C42FBD24246624328681B1B9BB2DA
:1045A000801842464B4554D34B4639005A43FDF7D9
:1045B0000BFBAB885B00564501D89A4503DB52469E
:1045C000D31A9BB29A4653462B81E868002825D01F
:1045D00000F0CEFD22E0E9884904490C88469C425F
:1045E00027D2964247D3B11A89B28C465800E11AB5
:1045F00089B28B4661460919814208DBD11889B21C
:104600000E1BB6B28A46B2423BD9361AB6B2A219CE
:1046100092B29246A146B7E700239946484603B0B6
:10462000F0BCBB46B246A946A046F0BDB21A92B253
:1046300092E700218946002BC7D04146E41A4C433B
:104640001600D118002289B28A46994693463F192E
:104650009AE753439BB21A0039005C440193FDF77B
:10466000B3FA414622004A43019B286892B2F918E6
:10467000FDF7AAFA9DE75800811A711889B28C4695
:10468000B5E7A146B04200DD7EE7BEE710B5040005
:10469000C068002803D00121494200F099FD20693B
:1046A000002803D00121494200F092FD0023E06878
:1046B00063812381002801D000F05AFD2069002881
:1046C00001D000F055FD012010BDC04670B50400BA
:1046D000C0680D00002803D00121494200F078FD98
:1046E0002069002803D00121494200F071FD7F219B
:1046F000E379ED011940E0682943E171002801D018
:1047000000F036FD2069002801D000F031FD0120C5
:1047100070BDC04610B5010000230022002000F04B
:1047200079FB10BD10B5034B0100186800F00EF8BE
:1047300010BDC046A815002010B5034B0100186835
:1047400000F022FC10BDC046A8150020F0B54E4672
:104750004546DE465746E0B50D000B35060085B0F0
:10476000162D27D8102900D9DAE000F0C7FA102555
:1047700018230221C74FFB181A005C68083A9442BC
:1047800000D146E103226368A1689343E268CA60EE
:1047900091600121E3185A6830000A435A6000F022
:1047A000B5FA2000083005B0F0BCBB46B246A946B9
:1047B000A046F0BD07239D4300D5B1E0A94200D932
:1047C000AEE000F09BFAFC235B009D4200D294E136
:1047D000690A00D1A8E0042900D94FE1382398469E
:1047E000A90988443931CB00082252429446A94F86
:1047F000FB189C446346DC68A44514D00323994607
:104800000B0061469C4607E0E068002A00DBFAE006
:10481000814200D1FBE004004A46636893435A1B7F
:104820000F2AF1DD41463A003C690832944200D13A
:10483000D8E0032063688343581B0F2800DD60E144
:104840003A617A610028A4DA7A6890468022920060
:10485000934200D3E3E0DA0858090123834040463D
:1048600018438046D300DB199A687860E360A26041
:104870009C60D46001208B10984040455CD8434632
:1048800003420AD1032399434346400004310342C3
:1048900003D1400004310342FBD00323B3469C46BE
:1048A0000E00B8460190F00040440100B246CB68CB
:1048B0000BE064465A681F00A243DB68541B0F2CB0
:1048C00000DDEDE0002C00DB07E19942F1D101238E
:1048D0009946CA44534608319B07E8D1032205E0B4
:1048E00003680838013E834200D001E23242F7D12A
:1048F0004346019A5B68934342465360019A5200D3
:1049000001929A4216D8002A06D113E00422914659
:10491000019ACA44520001921342F7D05646C2E7A8
:104920000C23002033603EE780233F224021904645
:104930009B0059E75E4647460322BC686368934381
:104940009846AB4202D35A1B0F2A4EDC2300434445
:104950000293514B08209A461B6810335B19019350
:1049600000F01CFA4D4903900B688B46013306D0CA
:104970008446019B4242013B634413400193300053
:10498000019900F0CBF903008146013300D1D6E054
:10499000029B834200D9D0E053465A68019B51469E
:1049A0009C4662444A60029803990139484500D008
:1049B000E3E04846084200D0DFE0B9684344894656
:1049C00001210B4349464B605146C96A914201D2CD
:1049D0005146CA625146096B914201D251460A635F
:1049E0004C46AEE07B68984644E7012329001A4311
:1049F0001943651961603000BD606A6000F086F996
:104A000020000830CFE6A268D0608260C1E661462F
:104A100009E7DC680231A34200D104E7B2E65A0A92
:104A2000042A00D882E0142A00D907E110005B3084
:104A300082465C32D200082040428446BA18944430
:104A4000624692680B308146944500D1DEE0080052
:104A5000A2466146844602E09268914204D04C46E8
:104A60005068A0439842F7D8D368614654469C46A4
:104A70006346A260E3609C60D460FBE614296DD9B4
:104A8000542900D9E3E06E239846290B88446F31FE
:104A9000CB00A9E6A0110020D01A00209811002018
:104AA000BA4601205146844649190543504645609F
:104AB000856847466046EB605E469D6053463961B7
:104AC0007961204308374860CF6030008F609C5088
:104AD00000F01CF95046083065E6BA4601205E46F3
:104AE0005244516801435160BA683000D3609A6003
:104AF00000F00CF93800083055E62B00E9080833BF
:104B000038E66119884601218C460D4341466560AF
:104B100039617961CA608A60624602434A60E05046
:104B2000300000F0F3F8200008303CE69A0910004D
:104B3000393238308246D2007DE7BC4214D0BC689E
:104B40006368032293435A1BAB4202D30F2A00DD52
:104B50004BE7300000F0DAF8002024E65B239846AB
:104B600088445C31CB003FE653465A68019B9C4623
:104B7000534662445A60039B591E5B461B680133CF
:104B800070D04B4602981B1A9B185246536007235D
:104B90004A4648461A400292184240D003980133D0
:104BA00084469B1A019A99444A44019263440A40FC
:104BB0009B1A194030008B4600F0B0F8431C77D0A8
:104BC0004B46C01A03005B44019353465A680120C8
:104BD0005A445A604B464946BB60019B03434B60B5
:104BE000BC4200D1F0E643460F2B3FD907210C3BD6
:104BF0008B4361680140052019436160E1184860FA
:104C000088600F2B49D84B465B68DDE65346981009
:104C100001238340404618438046786028E7019B83
:104C2000039A4B440B40D31A194030008B4600F0D6
:104C300075F8431CC4D100239B46C6E7542A17D8F5
:104C40001A0B10006F326E308246D200F3E6AA23B0
:104C50005B00994217D8DD3B9846E90B88447831D0
:104C6000CB00C1E55B464A461A6090E7486070E7B2
:104C7000AA204000824226D8DA0B10007832773022
:104C80008246D200D7E61C4B994226D87C23984610
:104C9000A90C88447D31CB00A6E521003000083105
:104CA00000F072F953465A68BB6899465B688BE618
:104CB000019A029B94464A46083B63449B1A01931F
:104CC00000239B4681E70C4882420CD89A0C1000C6
:104CD0007D327C308246D200ADE6FE237E227F21EB
:104CE00090469B0080E5FE227E2092008246A2E64E
:104CF00043465B6802E6C0465405000010B5024812
:104D000000F042F810BDC046141B002010B5024848
:104D100000F042F810BDC046141B0020002370B5FF
:104D2000064C050008002360FCF776FF431C00D00A
:104D300070BD2368002BFBD02B60F9E7F41D002029
:104D4000014B18687047C046A815002070B5074C85
:104D5000074D641BA41005D0013CA300EB589847F5
:104D6000002CF9D100F0FAF970BDC04644170020BC
:104D7000441700207047C0467047C0467047C04681
:104D80007047C0467047C0467047C0460120704714
:104D9000012070477047C0467047C046802310B559
:104DA0005B01082801D1180010BDFFF7C9FF1623C9
:104DB0000360173BF7E7C04610B583070AD003002E
:104DC000032102E001330B4205D01A78002AF9D101
:104DD000181A10BD030019680C4A0D4C8A188A4332
:104DE00022420FD15968094A04338A188A43224261
:104DF00008D15968054A04338A188A432242F1D0FF
:104E000000E001331A78002AFBD1E1E7FFFEFEFE45
:104E100080808080F0B5D6464F4646469846244B63
:104E2000C0B5060018689A460F009146FFF7ACFF20
:104E3000204B1D68002D32D053466C6818681F2C1B
:104E400030DC002E0CD1631C0234A4006B6067516F
:104E5000FFF7A2FF0020E0BCBA46B146A846F0BD6D
:104E600049468822A300EB189950C42149008C467A
:104E7000AC446146873AA2400968914611436246B4
:104E800011608421424649005A50022EDBD129008C
:104E90004A468D31FF310B6813430B60D3E7064D53
:104EA0001D60C9E7FFF778FF01204042D3E7C04605
:104EB000F0160020B41C0020241B0020034B10B56A
:104EC000002B02D00248FFF725FC10BD00000000B7
:104ED0004D4DFF10F0B5C646060000B508200D0088
:104EE000FFF75CFF04003000FFF708FF234B2100B1
:104EF00098469B685F6803239F4338001138401B26
:104F00000019FCF74DFD451E6543AC4208DC00214D
:104F10003000FFF703FF43469B68DB19984206D039
:104F20003000FFF7F3FE002080BCB846F0BD300033
:104F30006942FFF7F3FE01300ED0012243467F1B8A
:104F40009B6817430E4A5F60136830005B1B136059
:104F5000FFF7DCFE0120E7E700213000FFF7DEFE6F
:104F600043469A68831A0F2BDADD064C04492468FD
:104F7000001B086001210B435360D1E7A011002002
:104F8000D41A002098110020F8B5CE4647460500F7
:104F90000C0080B5002957D0FFF7B0FE0123210097
:104FA0009C46083948686246030003249343CF189F
:104FB0007A68654EA243B468BC4200D170E0BC1868
:104FC000A14664467A60044221D10868091A1B1878
:104FD000886880464846406820403400083481464E
:104FE000A04551D04046CC68C460A0604846002827
:104FF00011D19B185548BA68824200D17FE0F86809
:10500000D060826001221A434A60CB5007E04846D4
:1050100040682042EDD062461A434A603B608022DD
:105020009200934214D2DA08580901238340706831
:1050300003437360D3009B199A68CB608A609960C0
:10504000D1602800FFF762FEC0BCB946B046F8BD8B
:105050005C0A042C3DD89C09200039343830E40027
:1050600034192268083C0327944203D140E0926837
:10507000944203D05068B8439842F8D8D468CC60C2
:105080008A60A160D160DCE7002858D1B868D218E6
:10509000FB68C3609860634613434B608A50D0E757
:1050A0009A186346034206D10B68C91A8868D21859
:1050B000CB68C3609860012313434B60244BB160FD
:1050C0001B689342BDD8234B28001968FFF702FFE5
:1050D000B7E7142C07D9542C1AD81C0B20006F34B6
:1050E0006E30E400BCE720005C345B30E400B7E7DE
:1050F000012380108340706803437360BFE7D16071
:105100009160CA608A6001221A434A60CB5098E7D6
:10511000AA225200944205D8DC0B20007834773064
:10512000E4009DE70C4A944205D89C0C20007D3495
:105130007C30E40094E7FE247E20A40090E76246E1
:105140001A434A603B607CE7A0110020A8110020B0
:105150009C110020D01A002054050000F8B5C0466C
:1051600001B40248844601BC604700BF2904002006
:1051700001B40248844601BC604700BF2D020020F4
:1051800001B40248844601BC604700BF1D0D0020E9
:1051900001B40248844601BC604700BF9903002067
:1051A00001B40248844601BC604700BF3D100020A6
:1051B00001B40248844601BC604700BFC100002022
:1051C00001B40248844601BC604700BF09030020C7
:1051D00001B40248844601BC604700BF9D01002025
:1051E00001B40248844601BC604700BF01010020B1
:1051F00001B40248844601BC604700BFAD0D0020E9
:1052000001B40248844601BC604700BFF50C002091
:1052100001B40248844601BC604700BF5D0D002018
:1052200001B40248844601BC604700BFF904002075
:105230000A2A2A2A2050414E4943202A2A2A0A00B3
:105240000A0000004E6F207370696E6C6F636B73A1
:105250002061726520617661696C61626C65000035
:105260004E6F2075736572204952517320617265CB
:1052700020617661696C61626C65000048617264EE
:105280007761726520616C61726D20256420616CAC
:10529000726561647920636C61696D65640000000A
:1052A0004861726420617373657274004F75742075
:1052B0006F66206D656D6F727900000052656C65D8
:1052C00061736500626F6F74325F773235713038A9
:1052D00030000000322E322E300000007069636F03
:1052E00000000000444157476B6974004465632027
:1052F000313820323032350055534220737464699E
:105300006E202F207374646F757400005261737087
:105310006265727279205069000000005069636F05
:1053200000000000426F61726420434443000000AB
:105330005265736574000000556E68616E646C653B
:10534000642049525120307825780A006570202564
:105350003032582077617320616C72656164792006
:10536000617661696C61626C6500000043616E2763
:105370007420636F6E74696E75652078666572203F
:105380006F6E20696E616374697665206570202593
:105390003032580006005250D3F07542BC52FF1014
:1053A00006005250E182887FC452FF10060052501E
:1053B000ABB36053D452FF1006005250BBFF3CB653
:1053C000DC52FF1006005250861C0302E452FF100C
:1053D000060052505422A29DEC52FF10050052507C
:1053E000DE65F468F06CFF100D0A0000000000009C
:1053F000311FFF1000000000351FFF10411FFF107C
:105400006D1FFF10691FFF10000000000A00000060
:1054100000000306A6000800020002009C00140021
:10542000030057494E5553420000000000000000A1
:1054300000008000040001002800440065007600A0
:1054400069006300650049006E0074006500720029
:105450006600610063006500470055004900440094
:1054600000004E007B00620063003700330039000B
:105470003800630031002D00370033006300640002
:105480002D0034006300620037002D003900380021
:10549000620038002D00390031003300610038000F
:1054A00066006300610037006200660036007D0020
:1054B00000000000050F2100011C100500DF60DD69
:1054C000D88945C74C9CD2659D9E648A9F00000385
:1054D00006A60001000000000600525053B4F4A1DB
:1054E000F852FF10000000000C53FF101C53FF1077
:1054F000542900202453FF103053FF100902540098
:10550000030100807D080B00020202000009040074
:10551000000102020004052400200105240100010D
:105520000424020605240600010705810308001073
:1055300009040100020A0000000705020240000001
:10554000070582024000000904020000FF00010577
:1055500012011002EF0201408A2E0A00000101022E
:1055600003010000502BFF10B82CFF10082DFF1076
:10557000902CFF10A22CFF10802CFF10F02BFF109E
:105580009C2BFF10902BFF107230FF105830FF1033
:10559000282EFF109230FF10282EFF104030FF10F1
:1055A0002C30FF10282EFF101830FF101E2FFF1078
:1055B000282EFF10FE32FF10F032FF10E432FF10F1
:1055C000282EFF10282EFF10CE32FF10F032FF10D1
:1055D000282EFF10282EFF10282EFF10282EFF1037
:1055E000282EFF10282EFF10282EFF108432FF10C7
:1055F0007E0E00207E0E0020C80E0020E80E002047
:105600002C0F00203E0F0020740E00200000000030
:105610009938FF100939FF103D39FF108939FF1003
:10562000313AFF10193BFF1000000000000000009D
:10563000193CFF10753CFF10913CFF10B93CFF1066
:0C564000D11FFF10E13DFF100000000032
:10564C009453FF10A053FF10AC53FF10B853FF102E
:10565C00C453FF10D053FF10DC53FF10D854FF106D
:10566C0003000068EFF3108C72B60268002AFCD0BD
:10567C00BFF35F8F04229A56002A04DB002900D066
:10568C000A60002004E0D0220120120612681A7170
:10569C001B68BFF35F8F00221A608CF31088704771
:1056AC00F0B5C646150000B504001E000268EFF305
:1056BC00108172B61368002BFCD0BFF35F8F0423EC
:1056CC00E356002B2DDB2268BFF35F8F00201060A8
:1056DC0081F31088D0221206127852B290469A4268
:1056EC0003D1002080BCB846F0BD00270BE0236836
:1056FC00BFF35F8F1F6081F310882800310000F02A
:10570C0097FF0028EDD12268EFF3108172B6136871
:10571C00002BFCD0BFF35F8F23797F2BE7D9434657
:10572C0002E0D0231B061B6823712368BFF35F8F35
:10573C0000221A6081F310880120D3E7F0B5C64629
:10574C0000B50D00040000F04BFFFA2206000F001C
:10575C00002328000021920000F04AFF8023361815
:10576C004F411B069F4202D30126174F7642D0238E
:10577C001B061B68002598460BE02368BFF35F8F60
:10578C001D6081F310883000390000F051FF0028B3
:10579C0018D12268EFF3108172B61368002BFCD07D
:1057AC00BFF35F8F23797F2BE7D94346237123689F
:1057BC00BFF35F8F00221A6081F31088012080BC38
:1057CC00B846F0BD0020FAE7FFFFFF7F0268EFF359
:1057DC00108172B61368002BFCD0BFF35F8FFF23D0
:1057EC0003710368BFF35F8F00221A6081F3108886
:1057FC0040BF704710B5084C2378002B0AD180238A
:10580C00064807495B051A68C25004338B42FAD12B
:10581C000123237010BDC04668290020902300107E
:10582C000001001010B5014B984710BD91230020CA
:10583C00064B5A6802609A684260DA6882601A699C
:10584C00C2605A6902619B69436170470000024063
:10585C000268064B5A6042689A608268DA60C268D5
:10586C001A6102695A6142699A61704700000240EC
:10587C00034B1A68C0239B009343024A1360704782
:10588C000C8001400C900140054B1A6880239B0052
:10589C005340C02292001340024A13607047C04626
:1058AC000C8001400C900140F0B5D6464F46464660
:1058BC008023C0B5421804000D0086B09B039A42A9
:1058CC002ED81427182638883388174998473388D8
:1058DC008246164938889847338881461449388857
:1058EC009847338813498046388898470600FFF755
:1058FC0081FF6846FFF79CFFD047C8478022D8231A
:10590C00290020005202C047B047FFF78BFF6846C2
:10591C00FFF79EFF06B0E0BCBA46B146A846F0BD04
:10592C0000F076FECDE7C046494600004558000021
:10593C005245000046430000F0B54E464546DE4653
:10594C0057468023E0B5150082180400894687B0BD
:10595C009B039A422DD81427182638883388164969
:10596C009847338883461549388898473388824648
:10597C0013493888984733881249804638889847A5
:10598C000600FFF737FF6846FFF752FFD847D047AE
:10599C002A0049462000C047B047FFF743FF68463E
:1059AC00FFF756FF07B0F0BCBB46B246A946A0466F
:1059BC00F0BD00F02DFECEE7494600004558000032
:1059CC0052500000464300001423F0B5D6464F4613
